:100000000C94A2080C94CF080C94CF080C94CF0841
:100010000C94CF080C94CF080C94CF080C94CF0804
:100020000C94CF080C94CF080C94CF080C94CF08F4
:100030000C94113A0C94CF080C94CF080C94CF0870
:100040000C94CF080C9448250C94CF080C94CF083E
:100050000C94CF080C94CF080C94CF080C94CF08C4
:100060000C94CF080C94E8390C94BE390C94CF084A
:100070000C94CF080C94CF080C94CF080C94CF08A4
:100080000C94CF080C94CF080C94CF080C94CF0894
:100090000C94CF080C94CF080C94CF080C94CF0884
:1000A0000C94CF080C94CF080C94CF080C94CF0874
:1000B0000C94CF080C94CF080C94CF080C94CF0864
:1000C0000C94CF080C94CF080C94CF080C94CF0854
:1000D0000C94CF080C94CF080C94CF080C94CF0844
:1000E0000C94CF080C94971E0C945B140C94FE3760
:1000F0000C948E140C94A92E0C941F350C9414247B
:100100000C9409380C94AE1A0C94932F0C94081587
:100110000C94942C0C94E82A0C9403210C945C2AE3
:100120000C94282C0C94272E0C946E240C943D35A2
:100130000C942F1E0C945A390C94B2390C942C1F29
:100140000C94DF110C9466140C94E1330C949B2DE9
:100150000C94281D0C94E0210C9448190C9404195B
:100160000C9423200C94C4100C941E110C94851430
:100170000C947A130C94FB210C941F190C949B265D
:100180000C94A51D0C9487340C94DF1F0C94243020
:100190000C941C280C94D01E0C943A1C0C94E2264F
:1001A0000C9484230C9457230C94E9330C9441123F
:1001B0000C94F2300C943F2B0C943A110C947D2B40
:1001C0000C941E1C0C9457390C941D350C94482823
:1001D0000C948D110C94CE220C947F1A0C94792AD5
:1001E0000C948F2C0C94E2130C948F1F0C94821699
:1001F0000C94172B0C94C4240C94641B0C9420179F
:100200000C94FF380C94DB230C94FF260C949F393C
:100210000C94B22F0C942B2A0C94E1260C94C82E2B
:100220000C94B1330C948E280C9411230C947E20E2
:100230000C94901B0C94D5160C9446220C94D1214E
:100240000C9445230C9446240C94522C0C94F624C4
:100250000C94E6160C943E150C94CD340C940621A7
:100260000C9407130C946F1A0C94AE110C94981301
:100270000C9407280C94021C0400020000040004E3
:10028000000004070404000004040400000000004F
:100290000000040000000000040000020200000052
:1002A000020407000407070400000000040004041F
:1002B000000004000202040404040400000400041A
:1002C0000404040404040004000203040004040001
:1002D000040004000004000400000000000000000E
:1002E00001020102D60248280200010000008E2807
:1002F00003000100000057390400010000005A39D2
:100300000500010000009F39060100019C10C41087
:100310000700010000003A1108010001D5021E117A
:10032000090001000000E1260A02010197100728D8
:100330000B030103D202E2260C020102D0021C28A8
:100340000D020002D6028F2C0E0200026910071364
:100350000F030003D202E21310020002D0027A134C
:1003600011050005CB029813120200026910E82A59
:1003700013010001D5023F2B14020002D002172BFB
:100380001502000269105C2A16040004C7029B2DA6
:1003900017050005C202942C18010001D502112393
:1003A00019080008BA0284231A030003B702DB23EA
:1003B0001B0200026910CE221C020002D002572349
:1003C0001D040004841014241E010001D5024523DD
:1003D0001F080008AF02CD3420020002D00287348B
:1003E000210400036B1048192203000288106F1AC1
:1003F0002303000288107F1A240400046510E933E7
:1004000025010001D502E13326030003AC02B1331C
:1004100027050005A702201728030003B7021F19AC
:1004200029050003A40206212A040003A102821662
:100430002B0300028810D5162C0400046510E61664
:100440002D0300039E0285142E0300038A108E14D0
:100450002F060006980208153006000692023E1587
:1004600031010001D502DF1132030003D202411233
:100470003302000269106614340300028810093840
:10048000350400048410FF3836030003B702AE11B0
:1004900037010001D502C82E38030003D202F23022
:1004A000390200026910A92E3A0300028810932F26
:1004B0003B030002881024303C0600069202B22F53
:1004C0003D0300028810021C3E03000288101E1C1F
:1004D0003F0800088A023A1C400200026910971E79
:1004E0004105000585022C1F420400049110641B85
:1004F000430200026910901B4404000382022F1E75
:10050000450500057D02D01E46010001D5027D2B68
:10051000470400037A10282C480500057802522C65
:10052000490400046510C4244A030003AC02F62405
:100530004B0001000000B2394C000500000078DAE1
:10054000A559E96EDCC8117E95DE018C640349E093
:1005500070C83914F8872E6F94B56CADC78A030440
:100560000141913D330DF15A36A9230BBD7BAABA47
:10057000FA2267E45D24068C617757F551C75787E7
:100580007E9BDCF7A2C89347DE4A515772723AD974
:1005900066D929FBF34F17173FB2F8243A09D8BDA3
:1005A000A8FA4E1412673FDDB1733DFC918527E137
:1005B000FC240CA6F3601AC693A3495697655AE526
:1005C000B0C96F93B428EA2CED78528B5CB2ACEED4
:1005D000ABEEFDBB6C72BA3C8213BB0E8E4AD2EC02
:1005E00081C12A4C7BEBF3C823C87343D0D452FD9E
:1005F00088EAFDBB9E357D51247D430C73C7F06BAB
:10060000CFDB17BB275CE001A95B2EBBA413D9830A
:10061000A451D7A6952C4597985399A8E0FDFAFCCC
:1006200018DE51F0B44DE4AEEFF2FAA99A9C86F8C8
:10063000B46A23B670A3E76216C5E608D988843E7B
:1006400027A7F1D4515569516F1351D9DBAB6B4FCB
:100650004E676E277D654341C3C493C3C292AA49C6
:10066000DE0E371BC8601159E25C6C45971649DDF8
:10067000772386C7B4E8398E73BE49FBA24BEC449E
:10068000993E2779DFA61D5880BAE7D41DCE419F39
:100690005DDD0CF6CA068787734BBCCBA368B10C33
:1006A0000C712B137D36371F7964BF62FB35B75F42
:1006B0000BFBC58BF4C52A0DC431B38788303307D3
:1006C000C0270892D40AB686BF6033A06F628A9CA6
:1006D00058CAA65F8571E0335AC5B9C756BC6EC407
:1006E000332F4692CBD32E4DA4F80F1CB0EBC11D77
:1006F000BA0425E65994E430252AEFBE0BA7E9E6B3
:10070000A93CA08DEC05ACCCEDA175B1EBC7DA81AD
:10071000993DF544EEC66081E38DD1B13AF1C893BD
:100720009DD8EED40B674B9F1ECC735BF07D136698
:10073000762DE95E1A4EB289069CC6250E31EBA5D0
:10074000A494DBF7EFFE0218309B0D789F44B703AB
:10075000312499B179A0F0DED12D56A1554F660D07
:100760004766C583FD16B9FD7CA9B26468232C2BAE
:10077000F364CF6C02EF04DE34CE8B7098686BCEDE
:10078000456B3E090914B1A3EA0BC9BD4D43F7B04F
:100790006EC7DBB206076D0E4AD45F76428DDCA5CC
:1007A000BA32EBD3D6DA46FB9CEC7937EBEC245A21
:1007B0005E274A4E4F5BB95D5A9487132BEC9FF32B
:1007C000FB1EECB96E26A72B33825DB6CA96493F55
:1007D000534BD6F21480B6CD798BE7A107110A846A
:1007E00086E0A9151DDFA340A32542803E5EF27678
:1007F000CBABEC2541B8804BC0144147B2AB4BBEEC
:1008000007CA322D1BDF01F4D842F210B4E1EA0E20
:10081000AEE8B956C6ADD86E798B8F90E81F884880
:10082000B13B5C8504B853DA712BA010AC7A23007D
:10083000A4C1A5139221CBDA8CC47A34D98237AB08
:100840007B82FDEB91A201AFA661DFA0164091472C
:10085000138D788984F312B0400BE8F84D729E87AF
:10086000233254812173EA9883101196CA3A179B58
:100870009704746DF76AB97229A6E312DC005789F0
:100880002DD26CA4C3213DCE2505D7A01112A1D62F
:10089000E5F8F8081426725E757038AB371B3845DA
:1008A00039950D48708E8147F50C2BCD45E0ADF4A0
:1008B0004DEE244D517BD77BC72C601B52C9289429
:1008C0001E8ED6A08160C4A074D93B108956966054
:1008D0001C76FF47632B9DB169F47523481DB6C094
:1008E000B8E3D98317AC67F655A3586D6FD0D4E041
:1008F000CFE3F3BD7031331B8C02D59B62998F1807
:10090000C662896343B007F96F244668D380F062FA
:10091000436F8AED950E81DC1B7B78A21B480E731A
:100920001FD253CF0FA52876BBDA0FA2D3D8B08C35
:1009300062A825B78A013B981B62046D1BE8511B16
:100940008453C696772A49805F0148004EA1C2377A
:10095000A820D69F8A9F00607C1E308039228DFFA0
:1009600086517E05F79EED11A917A8986FF71C24F4
:1009700000C03427A68A3FEB2B4058B27E2A5A4249
:10098000AE29111979FC4E320152815779711D330C
:10099000DF8D334FE7977148749E677BABB3C8AC6C
:1009A00076986FF9914EA75F805ADC4BC38065EE55
:1009B0005864BDE99ED296FBBCA590B5896B652DA8
:1009C000C5A180BFB769B4A44DDF7EC70CDFAB7291
:1009D00089EF4172BC1A521D46E4184FA3AC214165
:1009E000D80734139883591F9BAE1C810A3668BD03
:1009F000148E988D4E5EAC020ED852C7FC81A8159D
:100A0000285BCCA6020049891B6588DE79C003C03B
:100A1000243CBACECF257853B73A9091A3AAB135EA
:100A200012FEDC0850891F365776A7D12B7C22880E
:100A30008104F287FCD8F381E8D5E427580E9E5D47
:100A40005E243767FFC4AC03D3A7F3BB75727BFD8D
:100A5000698DE00425E7EDF9ECE8F63C84FFD389E5
:100A6000B7D83DA9C5CBE0E8F612172E3E7EBEF8FA
:100A700039F9F0E5EA17749740FD3B9ADC5CDC013C
:100A800055DA957C9B86F13C00C2DB6F37745A883F
:100A900030F8E5EAE2EAFA1F57C9B7EB4F979FBF74
:100AA000A1DA429C5C5F7D8149BA056F455AE059E5
:100AB0005770D6159E05ABD7671F93F3B3BB4BDCBE
:100AC000868E5A7F3DFBBA4ED67737EB5F60657DE9
:100AD000852BF3574C367A487F5482AE8A5F5D97F8
:100AE000E0A77A43003460D338BE3D0B26A7FF0A47
:100AF0008E96FF866B9EE3F792BE2FF01B40400D53
:100B00002E7100698A1A5CE1004A4735F8808348F3
:100B1000F3FFA4067A83BFE120D61BFC1D070BCD93
:100B2000F3B33A46F37C5403E4791D400364A7AA67
:100B30006E9FCE6633B8F1D1249571102D7215F9E0
:100B4000BB82C750E4DFC38335977E9ED21F3E0F22
:100B5000C38F40136C21CB4C44AE95CE94716C285E
:100B60006E52AD7856A08DBF309381E50498176919
:100B7000C5AABA6360EC0C018301C611B03165B33C
:100B8000EC6927E09B6C4FB206BC074E224436BC92
:100B9000BDE42A8CB553B6A95B0666F0573316122E
:100BA000577335AFA62495ECC0FAA70E030294172D
:100BB0005BB810E4EC6987D4A9BE26155394546A37
:100BC0006289A468F294FAD2AC8A1D6A6BB829AF24
:100BD00098A9372C3F18DD0535485893B660728CBC
:100BE000B76DDDAAACD22CB41C4298EC549BE44304
:100BF0000AEFCD595733851458F62A07A7FAEFBAEA
:100C0000025F1339337D04D7D6A03847086CA87427
:100C1000674625B46E0EC8F02A69C92148525D6343
:100C200016CBFA919BDB302C7DD1A3DDB22D946DD8
:100C3000694C99E8DEBACE07EDF958FB182210206E
:100C400023B3C34AC3CC62456B70235C0CE6751AB0
:100C500093ED44A31967F1900054D037EE4D92D232
:100C60000243314864FC5D1045D267B4D3A5112816
:100C700055CD375CCA74CB191436108B8CC260CB3F
:100C80001B21D19A246482795F606105CC18BA99DE
:100C9000464565F8FC91A326306ABFCDB04BDB5CBE
:100CA00019BBA6C6BAF906C5AFB219065FEDA6A86C
:100CB0009F281DFA04569E327A0EBA97429568B460
:100CC00000764F0B18D5FD055135943450BEAF96C4
:100CD0002ABCA99B8E147A5AEB6FDA7A0BC22CE1EC
:100CE000EA29BE6D0351176E09C2E6E8B8989D7FE8
:100CF000E1FA5168ACE859700C8A1AD480968C7568
:100D0000C7DA12EC49873D89A2806094C17E834E88
:100D1000078557C76925F41D0EECAFADC10B498798
:100D2000EA024821CABE3473C639C0B2D6A69BA116
:100D3000EA2AD84CF9ADC220BFF5B7D68EDCD5353E
:100D4000DBA4EA75F4322C23BFFA267500EF562394
:100D500012942AECA55A3C14BBBF2A91E1E610AAD2
:100D6000255795F35D25FB06C33527BF57608B8557
:100D7000CEB7B4CB7679BD2541FF4059BA6AB542AA
:100D80004DD2570FB031820675F0BC79E916C078A4
:100D9000C98D00552480213A392402505D4A3281A0
:100DA00099EBF910A6D5550130F8081BA4F7854139
:100DB000372BA1952A2B99CE4F28471BD5B1A7ECED
:100DC00033E02BC4C87B4C2936D8C7903F50D5A4FC
:100DD000BAC3166A75CF38A7E684C46AB402102174
:100DE000ABCA601997229B4229F451A22BD216C597
:100DF0008D35C681E404554A0E804D288DC8E45EC9
:100E0000989241F4DA6BD460F8820C62365DC6B118
:100E10008A867A3057E19006F358D9070CE6F30535
:100E20007CCF5E5F5509D1007C706A82EB92D5CF92
:100E30002F25826A95F15161BC42451EAA705DB1B1
:100E4000A3AB3193C051A1E0EF76DF2BF7545C1BCD
:100E5000B1A9F1B7105EA71B2B024C7E6CA53C68B4
:100E60008CD08E876AABA5D7B51F70A45E19CCD481
:100E70000ABDE6180D9F4A2897A92E6D871CE2AB84
:100E8000EEA9A807AAD60BCE19AB520502009F7F88
:100E9000EFA5EAA8AAEAFA7BB7D61CFA2371A71F26
:100EA00063EE61FA5D12DCCFB6AF96916B170D76EB
:100EB000DED550CF6EF7CFF0BB51C03E771D98C442
:100EC000A8DF65CE34D64A9EBA268B476ABB2D640E
:100ED0000E27480A26E709848DD32B92C902BCDC71
:100EE000D4FF7FC0C68E31D01DEC17FC5F46D6EF15
:100EF0001BD9F1CC6F1769799BCBF559A63AF41938
:100F00002A055E0052F0FB924BAC9E1D349B16CE20
:100F100061012CFD1CF60F8920F439BC12CC67004E
:100F20004D1DAC9BF7D4EBB7417C3D47C33AF577F9
:100F3000CC62A9EA48003495D02EE6944D4B67CB9D
:100F4000B22FF58FFC95FA455EE5392A4BA9E906E3
:100F500059F9321EE1DA500D079DBDA7C8A474B33C
:100F60000A5CADBA7F7FAC52C9D307F5A7739E2C3C
:100F7000B5C5F0C136AD0F0CAAA654A933FDCDA25C
:100F8000F717B1BAD07F9E840AED3138990627C190
:100F9000711C2F8EB79B050F57F7E1E238176DF7DD
:100FA000721C066118AC826912CC82593C3F2E1F1C
:100FB000B03C79FD2F9A4AAC127B0A000020002336
:100FC00000260029002C002F003200000100000341
:100FD00001060109010F4700440045008001354822
:100FE000004400450020010D880080008100800041
:100FF0000E8A008000810020000F8C00800081009C
:1010000008000CB300B000B10080033EB400B00093
:10101000B1002003239800900091008000249A00E2
:10102000900091002000259C009000910008003B5A
:10103000A800A000A10080003CAA00A000A1002000
:10104000003DAC00A000A10008005B2801200121A8
:101050000180005C2A012001210120005D2C01207B
:101060000121010800040000000404040407040036
:101070000002040002040204000704020704000046
:10108000020404020400000404070400020404042F
:10109000000404000404010704000402000000002E
:1010A000000000060002026617046510650A026966
:1010B0001064400288106340036B106240037A1092
:1010C000611F076E106040037A105F0B0275105E9F
:1010D000400377105D40037A105C1C077D105B4075
:1010E0000288105A140484105940028810581003C2
:1010F0008A105711048D105611049110550D029548
:1011000010540B019C105340019710521204981078
:10111000510B019C105010029D104F15039F1000A1
:101120004002A2104E0E02A4104D0901A6104C065A
:1011300000000028292A2B2C2D2E2F5051525354B9
:101140005556570011241FBECFEFD1E2DEBFCDBFF1
:1011500000E00CBF14BE0FB6F894A8958091600013
:10116000886180936000109260000FBE12E0A0E0E2
:10117000B2E0ECE9F5E700E00BBF02C007900D928A
:10118000AA32B107D9F723E0AAE2B2E001C01D926A
:10119000A739B207E1F70E9479260C94CC3A0C9457
:1011A0000000CF93DF93CDB7DEB76E970FB6F894FC
:1011B000DEBF0FBECDBF0E9466266B017C019E0183
:1011C0002F5F3F4F1901AE01475F5F4F5B8B4A8B2B
:1011D00080912602882309F434C50E946626C61A27
:1011E000D70AE80AF90AF89480912602882351F078
:1011F0008FEF8093260278940000F8948091260265
:101200008111F9CF78940E946626A7019601260FD6
:10121000371F481F591F288F398F4A8F5B8F81E0F6
:101220008093260280914C02882309F440C01092DA
:101230004C028FEF898392EFE92E90E1F92E65E45D
:1012400073E2C1010E9469118C01892B81F1D801DF
:1012500056968C9182FFF3CF0E946626F894F8018F
:1012600037892689422F4B7F468B78949F938F93A3
:101270007F936F931F923F9321701F922F938981C9
:101280001F928F93FF92EF920E94CC312DB73EB701
:10129000245F3F4F0FB6F8943EBF0FBE2DBF65E4ED
:1012A00073E2C1010E9469118C01892B81F6809142
:1012B0004D02882309F110924D028FEF89830DEEC4
:1012C00010E167E874E3C1010E946911FC01892BF8
:1012D00099F0958D868D9813F4CFF894858D968D21
:1012E000891709F48FC5789467E874E3C1010E94F7
:1012F0006911FC01892B69F780914702882309F461
:1013000056C0109247028FEF898B8CE0B82E6FE1A8
:1013100079E1CE0141960E9469114C01892B09F4B3
:1013200046C0D40157968C91579780FFF0CFF89420
:10133000F401448055806680778087898E7F878B13
:10134000789456968C91813009F4E5C308F4BDC3B6
:10135000823009F47EC38330D1F6A9881F86188AAB
:101360009E01215F3F4F42E061E0F401848995894D
:101370000E9475198F859889382F292F3D8B2C8BCA
:10138000790100E010E0B401605F7F4FC12CA30140
:101390009201C4010C960E945F173C8932FFB7CFBF
:1013A000809127028111B3CF8CE10E94F7378091A1
:1013B0004602882389F1109246028FEF8B87A2E0C4
:1013C000DA2EBDE2EB2E18E0F12E66E674E1CE01D6
:1013D0000B960E9469118C01892BF1F0D80152966D
:1013E0008C9182FFF2CF80FF12C0C8010E9440356D
:1013F000F801D28AE982FA82910142E060E08485B4
:1014000095850E947519C8010E948515DECF6B85F0
:10141000C8010E94CA15D9CF80914502882309F4DA
:101420005AC0109245028FEF8B8777247A94FDE1A2
:101430004F2E6EEA71E1CE010B960E9469118C016C
:10144000892B09F448C0D80150968C9182FFF1CFC6
:10145000F894F80184809580A680B780F488108A7B
:10146000148A789480859185A285B385881A990A13
:10147000AA0ABB0AD801FF2089F052968C91F80184
:10148000E80FF11D758A168A178A8D5FF801828B25
:101490008E32D8F4FA94D801F110EFCF51968C9196
:1014A000882309F477C2813009F462C3823009F4D9
:1014B00057C4D80152968C9190E08E970CF4B9CF16
:1014C0006B85C8010E94D938B4CF6B85C8010E94D2
:1014D000D938FA94E0CF80915102882309F45FC093
:1014E000109251028FEF8B8712E0A12E03E2E02EC3
:1014F0008AE6F82E94E0B92E20E4C22E38E0D32EEE
:1015000069EA7EE2CE010B960E9469118C01892B5B
:1015100009F445C0F801828982FFF2CF80FF3AC00A
:10152000C8010E944035D8015296AC925297E98288
:101530001A821C96ED91FC911D97A10162E08081B9
:101540000E947118F982BA82D8011C96ED91FC9123
:101550001D97A10162E080810E947118F982CA8200
:10156000D8011C96ED91FC911D97A10162E080814C
:101570000E947118E982DA82D8011C96ED91FC91E3
:101580001D97A10162E080810E947118C8010E942C
:101590004330B6CF6B85C8010E946230B1CF8091D5
:1015A00048028823E9F0109248028FEF898306EB06
:1015B00010E160E97BE1C1010E946911009781F0AF
:1015C000FC01208D2F3FA9F7F8942685211104C333
:1015D000789460E97BE1C1010E946911009781F76D
:1015E000809149028823D9F1109249028FEF8983B3
:1015F00001EB10E160ED7EE1C1010E9469110097ED
:1016000071F1DC011E962C911E9723FFF3CFF89405
:10161000FC012685277F268778949C01265E3F4F14
:101620003F932F9350968C918695869586951F9221
:101630008F9389811F928F931F930F930E94CC31B8
:10164000EDB7FEB738960FB6F894FEBF0FBEEDBFEC
:1016500060ED7EE1C1010E946911009791F68091D1
:101660004E02882309F446C010924E028FEF898300
:1016700007EA10E166EF74E2C1010E946911FC0102
:10168000892BC1F1848D80FFF5CFF8949481258159
:1016900036814781548965897689A789B08DF18C17
:1016A000E28CD38C848D8E7F848F7894DF92EF923E
:1016B000FF92BF93AF937F936F935F934F933F934B
:1016C0002F939F9389811F928F931F930F930E9453
:1016D000CC312DB73EB7205F3F4F0FB6F8943EBFD9
:1016E0000FBE2DBF66EF74E2C1010E946911FC01BB
:1016F000892B41F6A89580917302882329F080E414
:10170000809360001092730210913403112309F446
:101710006DC000912A0200FD12C0153008F466C0A9
:10172000B0907402CB2C8BEF8B0D8C3308F4B0C2CD
:10173000EEE7CE1609F41AC4016000932A02412F85
:1017400050E06EE770E084E792E00E949D3A0097D7
:1017500039F00E7F00932A028457924011E0180F4F
:1017600001FD0CC0902F926090932A0289E395E0CE
:101770009F938F930E94CC310F900F90B12EDD2458
:10178000DA9480E0EB2CF12C18C090E0402F50E070
:10179000481B590BB701680F791F6C587D4F8C5847
:1017A0009D4F0E94B33A10922602802F9FB7F89463
:1017B00020913403121761F09FBF10913403012F61
:1017C0000B1919F79FB7F894209134031213F4CF33
:1017D000009334039FBFF1E0DF1208C089E395E076
:1017E0009F938F930E94CC310F900F900E9466269A
:1017F0006B017C01288D398D4A8D5B8D621B730BCB
:10180000840B950B8090330290903402A0903502A7
:10181000B09036023FEF831A930AA30AB30A80926C
:10182000330290923402A0923502B0923602409078
:101830002F02509030026090310270903202460EBA
:10184000571E681E791E40922F02509230026092FD
:101850003102709232026115710541E084079105F1
:1018600008F0F4C19B01AC010E941C3ADC01CB01E1
:1018700081509F4FAF4FBF4F892F9A2FAB2FBB2760
:1018800040912B0250912C0260912D0270912E02FA
:10189000840F951FA61FB71F84179507A607B707C4
:1018A00018F48FEF9FEFDC0180932B0290932C02B2
:1018B000A0932D02B0932E0240916F0250917002BE
:1018C00060917102709172025C546B437B4F2F2DBB
:1018D000C416D506E606270B27FD7ACCBF93AF9337
:1018E0009F938F937F926F925F924F92BF92AF922E
:1018F0009F928F928AE191E19F938F930E94CC31C6
:101900006DB77EB7625F7F4F0FB6F8947EBF0FBE94
:101910006DBF80916F0290917002A0917102B091A1
:101920007202C816D906EA06FB0698F480916B028B
:1019300090916C02A0916D02B0916E020196A11D72
:10194000B11D80936B0290936C02A0936D02B093D3
:101950006E02C0926F02D0927002E0927102F09219
:10196000720210922B0210922C0210922D021092F1
:101970002E0210922F021092300210923102109219
:1019800032021092330210923402109235021092F9
:1019900036021ECC82E389831A820E9466266B017E
:1019A0007C01910142E061E0F801848595850E9407
:1019B00075190E946626DC01CB018C199D09AE09C0
:1019C000BF0981329340A105B10508F0F7C09981A4
:1019D00097FD2EC1C818D908EA08FB08D80153960C
:1019E0008C918823C1F02FEF280F41E050E002C016
:1019F000440F551F2A95E2F7052E000C660B770B56
:101A0000C40ED51EE61EF71E04C0F694E794D794C4
:101A1000C7948A95D2F7BFEFCB16D104E104F10445
:101A200008F064C12A8130E0220F331F892F90E033
:101A3000982F8827990F822B932BF8012289E20F88
:101A4000F11DC58A868B978B2D5FD80152962C93FA
:101A500030CDA98881E089831A821B821C82910182
:101A600043E061E0848995890E94751969817A81D2
:101A70008B819C810E942C3A272F382F492F552784
:101A80002C8B3D8B4E8B5F8B37E039831A82910113
:101A900042E061E0D40154968D919C9155970E944B
:101AA0007519EC88FD880E891F8900271127B4015C
:101AB000605F7F4FCA80A3019201C4010C960E940F
:101AC0005F17BC89B0FF23CC6BCCA9881B861C8612
:101AD0001D861E869E01255F3F4F44E061E0F401B4
:101AE000848995890E9475196B857C858D859E8575
:101AF0000E942C3AD62EF72EB401605F7F4FC12C86
:101B0000ED2C8C01A3019201C4010C960E945F1779
:101B1000D2FEFDCB45CCA988B9821A821B821C82D9
:101B2000910144E061E0848995890E947519698179
:101B30007A818B819C810E942C3A6B017C01BFE0F1
:101B4000B9831A82910142E061E0F40184899589A8
:101B50000E947519870176011127B401605F7F4FDC
:101B6000CA80A3019201C4010C960E945F17CFCBDB
:101B70008FE789838EEF8A830E9466266C8B7D8B2C
:101B80008E8B9F8B910142E060E0F8018485958502
:101B90000E9475190E9466266B017C01DC01CB0155
:101BA0002C893D894E895F89821B930BA40BB50B51
:101BB00081329340A105B10508F4A5C0D801529621
:101BC0008C91F801E80FF11D758A92E0968B178AC7
:101BD0008D5FF801828B6DCCFC01318D308F789454
:101BE000AC01415F5F4F5F934F931F922F938789A3
:101BF0001F928F9389811F928F931F930F930E943F
:101C0000CC31EDB7FEB73A960FB6F894FEBF0FBED3
:101C1000EDBFCFCC2A893B89E217F30709F0E3C077
:101C2000809590E02A8530E08217930709F40AC175
:101C3000D80152968C91F801E80FF11D758A93E056
:101C4000C5CFC88ED98EEA8EFB8EE9CA61157105A3
:101C500050E18507910508F024CE8B019C010150CD
:101C60001F4F2F4F3F4F5527432F322F212F0E94B9
:101C70001C3ADC01CB0140912B0250912C02609167
:101C80002D0270912E02840F951FA61FB71F04CE40
:101C9000D09075028D2D807F803109F049CD1B15C4
:101CA00008F4A4CD8B2D90E0FC01ED58FD4F208170
:101CB0002E3709F03DCDAC014F585D4F4A01FC0174
:101CC000EE58FD4F9081DA018C91292F30E0790197
:101CD000F82A6DEF6B0D84E792E00E947C26E816EF
:101CE000F90609F445C1C090740222CDF801828939
:101CF000E80FF11D758A91E0968B178A8D5FD801E8
:101D000052968C93D6CB80EC89831A82910142E063
:101D100061E0D8011C968D919C911D970E947519C8
:101D200049812A81942F9227892F82958F70982735
:101D3000892F869586958927982F9695892780FDE6
:101D400095C046FFA3C0F8018289E80FF11D758A8E
:101D500025E0268B178A8D5FD80152968C93A9CBEC
:101D6000D8011C96ED91FC911D976480B281BC8BCB
:101D7000538040E06B2F752D862D0E94F5180E9430
:101D800066266B017C01E0E1CE0ED11CE11CF11C4A
:101D90000E9466262F2DC616D706E806290B27FFB8
:101DA000F7CFF89441E06C89752D862D0E94F518C7
:101DB0000E9466266B017C017894D101EAE01D92B5
:101DC000EA95E9F7F4E8F98323E22A8391014AE0EE
:101DD00061E0D8011C968D919C911D970E94751908
:101DE000FE01339685E09191892728E030E005C017
:101DF000880F2150310909F40DCF87FFF9CF880FE3
:101E00008425F7CF5489658990892189328943894E
:101E10008F5F858F78946F935F934F933F932F934A
:101E20009F9389811F928F931F930F930E94CC31B0
:101E30004DB75EB7465F5F4F0FB6F8945EBF0FBEFB
:101E40004DBF3FCA898584FF18C08B8187FD60C064
:101E5000D80152968C91F801E80FF11D758AB4E013
:101E6000B68B178A8D5FF801828B23CBF8018289AC
:101E7000E80FF11D758A93E03FCFD80152968C91FF
:101E8000F801E80FF11D758AB5E0EACFC818D90846
:101E9000EA08FB08F80133893323C9F08FEF830F79
:101EA00061E070E002C0660F771F8A95E2F7CB0110
:101EB000092E000CAA0BBB0BC80ED91EEA1EFB1E76
:101EC00004C0F694E794D794C7943A95D2F77FEF7D
:101ED000C716D104E104F10408F03FC0842F90E05C
:101EE000AC01542F4427550F550FF4E02F9FC0012C
:101EF0001124842B952BD80152962C91F801E20FD6
:101F0000F11DC58A868B978B2D5FF801228BD1CA74
:101F1000C818D908EA08FB08F1E5CF16F5E5DF0691
:101F2000E104F104D0F42C8130E0220F331F90E063
:101F3000982F8827990F822B932BD80152963C918A
:101F4000F801E30FF11D2F8126952F73258B868BCA
:101F5000978B3D5FF801328BACCAD80152968C91B9
:101F6000F801E80FF11D758A91E030CE11E006CC42
:101F7000802F8D7F80932A0280910802D81202C19F
:101F800081E08D0D8F70806180930802B6E78B161B
:101F9000B2E09B0609F008F4BEC0E6E7F2E0BE8EB0
:101FA000CDB6DEB68F010F5F1F4F2081222309F4CB
:101FB000E6C0E8E3F5E08491281708F0E0C030E0DF
:101FC000220F331F220F331F220F331FF901E75255
:101FD000FD4FE4914DB75EB764E0E69F40195109AB
:101FE00011240FB6F8945EBF0FBE4DBF8DB79EB7DC
:101FF0000196F901E552FD4F4491F901E452FD4F7C
:1020000065917491FB01640F711DAC01DD8ACC8A6E
:102010009D8F8C8F6E177F0709F482C08016910602
:1020200008F46EC0A491A53028F1A73009F068C06B
:102030002801BFEF4B1A5B0AD801AC9082010A0D50
:10204000111D8016910608F45BC0B12CC12CD12C57
:10205000DA01AD92BD92CD92DC921397612C712C76
:1020600014964D925D926D927C921797485F5F4FE8
:102070003196D0CF7A0184E0E80EF11C68019FEF21
:10208000C91AD90AD8011C91912F9F77492E512C3A
:10209000612C712C012F00760036A9F117FF3EC08C
:1020A00086010F5F1F4FD80111978C91440C551C6E
:1020B000661C771C440C551C661C771C440C551C74
:1020C000661C771C440C551C661C771C440C551C64
:1020D000661C771C440C551C661C771C440C551C54
:1020E000661C771C982F9F77492A87FDDACFDA0183
:1020F0004D925D926D927C921397A70131968ACF93
:1021000087E00E94F737B0EE4B2A55245A94652C8D
:10211000762CC4CFBE8CDD24D39433CB8601E7CF9D
:10212000CC88DD888C8D9D8D40912702442331F031
:10213000F901E652FD4FE491E0FF11C022523D4FFC
:10214000F90125913491F90119950FB6F894DEBE85
:102150000FBECDBE08151905E8F6F80121CF809114
:1021600028021F928F93E9E2F1E1FF93EF930E941F
:10217000CC310FB6F894DEBE0FBECDBEEBCF85E0FE
:102180000E94F7371B2DF2CA0F931F93CF93DF9353
:102190008C0180913F0290914002892B09F04BC045
:1021A00060913E0270E0623071052CF482E0809311
:1021B0003E0262E070E0E0913A02F0913B024DB7DE
:1021C0005EB741505F4F44275A959F01C0E0D0E071
:1021D000C901860F971F4817590730F121969C01B6
:1021E000C115A4E0DA07A1F78E1B9F0B0E94A9314D
:1021F000D0934002C0933F0290933D0280933C02F3
:102200000E94E428F80180819181A281B3818093AA
:10221000410290934202A0934302B0934402DF91A3
:10222000CF911F910F910895209711F0C901DCCF34
:1022300080E10E94F7378DE00E94F737CF9320911D
:10224000380230913902232B91F4FC01C0818C2F8C
:1022500090E0880F991F880F991F0E94A9319093D1
:10226000390280933802C0933702CF9108958AE0F3
:102270000E94F73780913F02909140029F938F9385
:1022800021E030912702311101C020E01F922F93ED
:10229000209144022F93209143022F9320914202D8
:1022A0002F93209141022F9321E0892B09F420E004
:1022B0001F922F938BE091E19F938F930E94CC31DB
:1022C0008DB79EB70C960FB6F8949EBF0FBE8DBF0C
:1022D0000895CF93DF93EC01988140913702A0914C
:1022E0003802B09139020BC0FD0184E0989FE00DE7
:1022F000F11D1124208131812617370741F09F5F9E
:10230000941790F380E090E0DF91CF910895988347
:1023100082819381DF91CF910895FC01808982FDB4
:1023200019C08460808B1092260281E08093450260
:10233000448155816681778180859185A285B385A9
:10234000840F951FA61FB71F84839583A683B78329
:1023500081E0089584898F5F848BE5CFFF920F938E
:102360001F93CF93DF93EC01F88483E08F1508F17E
:1023700045E450E06EEA71E188810E949D288C015D
:102380008DE891E1F8019383828361EB73E38C81A3
:102390000E94CC28F80195878487FC01858180FF05
:1023A0000BC0F801F18ADF91CF911F910F91FF903F
:1023B000089583E20E94F73782E20E94F7378F92F6
:1023C0009F92AF92BF92EF92FF920F931F93CF9382
:1023D000DF931F921F92CDB7DEB77C0166E674E1F2
:1023E000FC0180810E94CC288C0189EB89831A82B0
:1023F0000E9466264B015C019E012F5F3F4F42E029
:1024000061E0F801848595850E9475190E94662611
:10241000F80121892F9320892F932A811F922F93CE
:1024200023891F922F9327852F9326852F93DC01D5
:10243000CB0188199909AA09BB09BF93AF939F9350
:102440008F93BF92AF929F928F92F70180811F92DC
:102450008F9389ED90E19F938F930E94CC310FB6BB
:10246000F894DEBF0FBECDBF0F900F90DF91CF91DC
:102470001F910F91FF90EF90BF90AF909F908F9022
:1024800008954F925F926F927F928F929F92AF9238
:10249000BF92DF92EF92FF920F931F93CF93DF9340
:1024A0001F921F92CDB7DEB77C01FC01D08066E69B
:1024B00074E18D2D0E94CC288C01F70180859185D7
:1024C000A285B385892B8A2B8B2B99F1C8010E9499
:1024D0004035F70184819581A681B781F801848315
:1024E0009583A683B783F70180859185A285B385FF
:1024F000F80180879187A287B38781E0828B118A58
:10250000108A17861686138AC8010E9492350F908A
:102510000F90DF91CF911F910F91FF90EF90DF907F
:10252000BF90AF909F908F907F906F905F904F90F3
:102530000895C8010E944035F801128A8DE289830E
:102540001A820E9466264B015C019E012F5F3F4F5D
:1025500042E060E0F801848595850E9475190E942B
:1025600066262B013C0181E2F82E99EBE92E03C08F
:10257000FA94FF20C1F0E9821A829E012F5F3F4F3B
:1025800042E061E0F801848595850E9475198A8191
:102590008F7749F0813260F76D2DC8010E94CA150E
:1025A000FA94F110E8CFF8018389882331F06D2D7A
:1025B000C8010E94A415F8018389F80191899F93AD
:1025C00090899F939A811F929F931F928F938785E3
:1025D0008F9386858F93D301C20188199909AA091F
:1025E000BB09BF93AF939F938F93BF92AF929F927C
:1025F0008F921F92DF9289ED90E19F938F930E94BB
:10260000CC310FB6F894DEBF0FBECDBF80CF8F9216
:102610009F92AF92BF92FF920F931F93CF93DF933E
:102620008C0168E973E1FC0180810E94CC28EC01F7
:102630000E9440358F8D98A1892B09F058C0F80170
:1026400004811BA1FF24F394002339F16C897D8957
:102650008E894F2D0E94F51821E001111CC014FB3A
:10266000882780F991E08927281741F08F89988D74
:10267000A98DBA8D892B8A2B8B2B89F410711F2978
:102680001BA3DF91CF911F910F91FF90BF90AF904F
:102690009F908F90089520E0E2CFF12CD7CF0E9439
:1026A00066268F88988CA98CBA8CDC01CB01880DAA
:1026B000991DAA1DBB1D888B998BAA8BBB8B8C8304
:1026C0009D83AE83BF838FEF96E29B838A831071D5
:1026D00014601F291BA3CE01DF91CF911F910F9191
:1026E000FF90BF90AF909F908F900C94923582E1B5
:1026F0000E94F737CF93DF93EC0168E973E188819B
:102700000E94CC28F894FC01278D30A1232B69F47A
:102710004C815D816E817F81FC01438F548F658F79
:10272000768F7894DF91CF91089584E10E94F737F6
:10273000CF92DF92EF92CF93DF93EC0161E0888537
:102740009985AA85BB85892B8A2B8B2B09F460E0A0
:102750008C810E9414256B01E82E44E250E068E968
:1027600073E188810E949D28FC01C48AD58AE68A8B
:1027700021E0488559856A857B85452B462B472B6B
:1027800009F420E04C855D856E857F85452B462BC1
:10279000472BB1F430E0232BFC0123A3488959894E
:1027A0006A897B89478B508F618F728F6AE070E0F6
:1027B0004F96DF91CF91EF90DF90CF900C942E2920
:1027C00030E1E9CFCF92DF92EF92FF920F931F9308
:1027D000CF93DF938C0168E973E1DC018C910E9457
:1027E000CC28EC010E944829FC01D8011496CD9018
:1027F000DD90ED90FC901797C282D382E482F5823F
:1028000018964D915D916D917C911B9746835783EE
:1028100060877187F894118210828F8D98A1892B1F
:1028200081F0A9A1BAA1ED93FC93FAA3E9A378944E
:10283000DF91CF911F910F91FF90EF90DF90CF909C
:102840000895FAA3E9A3F8A3EF8F8BA182FD25C019
:10285000C88AD98AEA8AFB8A982F94609BA381FD53
:1028600010C0CE010E944035CC82DD82EE82FF8214
:102870008FEF96E29B838A83CE010E9492357894F3
:10288000D7CF4C815D816E817F81872F4C155D058F
:102890006E058F0987FFE5CFF2CF488959896A898C
:1028A0007B89972F4C155D056E059F0997FFD0CF4B
:1028B00083E10E94F737FC0192899460928B109219
:1028C000260281E08093460280E008950F931F93D3
:1028D000CF93DF938C0146E450E066E674E1FC019F
:1028E00080810E949D28EC018BE594E19B838A8383
:1028F00061EB73E3F80184810E94CC289D878C876B
:10290000DF91CF911F910F910895FC014481558172
:1029100066817781208580810C945C29EF92FF92FB
:102920000F931F93CF93DF937C0168E075E1DC0187
:102930008C910E94CC288C010E944829EC01F7015F
:1029400084819581A681B7818A839B83AC83BD8373
:10295000808591859F838E83F89419821882D8018F
:1029600051968D919C915297892BB9F15396ED9187
:10297000FC915497D183C0835496DC93CE935397A4
:1029800080E090E07894892B39F4DF91CF911F910A
:102990000F91FF90EF900895C8010E944035D80133
:1029A00012968D919C91139783509142F1F08A81F8
:1029B0009B81AC81BD812EE730E2F8013383228315
:1029C00084839583A683B783C801DF91CF911F913C
:1029D0000F91FF90EF900C949235F801D48BC38B3C
:1029E000D28BC18B81E090E0CDCF8A819B81AC817D
:1029F000BD81F8014481558166817781272F481771
:102A000059076A072B0B27FFD6CF80E20E94F737C2
:102A1000CF92DF92EF92CF93DF93EC0148855985F7
:102A20006A857B852C858C810E945C296B01E82E50
:102A300045E150E068E075E188810E949D28FC0135
:102A4000C086D186E28688899989908B87878C8910
:102A50009D89AE89BF8983879487A587B6878EE7CE
:102A600090E29383828368E070E0CF014196DF912A
:102A7000CF91EF90DF90CF900C942E29DF92EF92C0
:102A8000FF920F931F93CF93DF93EC01D88883E0DD
:102A90008D15B0F161EB73E388810E94CC287C0135
:102AA0008AE090E00E94A9318C0161E08C810E9453
:102AB000BC18F80160837183828360E088850E947E
:102AC0001425F80163837483858360E08C850E94FC
:102AD0001425F801668377838087D186F701858185
:102AE000982F967081F4F7011183008382608583AB
:102AF000DF91CF911F910F91FF90EF90DF9008959C
:102B00008BE10E94F7370E9472190F931F93CF93A6
:102B1000DF93EC01F8940E946626088519852A85C2
:102B20003B85DC01CB01800F911FA21FB31F8C835B
:102B30009D83AE83BF83CE010E9492357894DF914E
:102B4000CF911F910F910895CF93DF93EC0144969D
:102B50009F938F938B891F928F938F858F938E85F1
:102B60008F931F926F9384ED90E19F938F930E94B8
:102B7000CC311B8A8E859F8501969F878E878DB766
:102B80009EB70A960FB6F8949EBF0FBE8DBFDF9119
:102B9000CF910895DF92EF92FF920F931F93CF93FF
:102BA000DF93CDB7DEB729970FB6F894DEBF0FBE1F
:102BB000CDBF8C01F62E9E012F5F3F4F89E0F901BA
:102BC00011928A95E9F782EF898349E061E0F80183
:102BD000848595850E947519F801838990E09C0190
:102BE0002C5E3F4FE20FF31F3B81232F207F21F10B
:102BF000203F11F12FEF2483238322832183F801C7
:102C0000E80FF91F248BF80183898B5F838B8E3249
:102C100008F05EC0F801828981FD4FC029960FB689
:102C2000F894DEBF0FBECDBFDF91CF911F910F9102
:102C3000FF90EF90DF9008954D81242F207FC9F5FC
:102C40002F81522F507F11F0503FA1F658855039F7
:102C500089F659855F77E52E50E25E1558F2D80166
:102C6000A80FB91F5A8154965C938C8181838E8101
:102C70008283822F90E03F71BC01660F771F6295BF
:102C80007295707F7627607F7627362B3383880F87
:102C9000991F880F991F80764F71482B4483F80144
:102CA00083898B5F838B4EEFD42EDE0C8E32B8F08F
:102CB00012C0203F09F09ECFC3CFC8010E9440350B
:102CC000F80182898B7F828BC8010E948515A6CF6F
:102CD0008EEFD82EE12C6F2DC8010E94A415FEE1C5
:102CE000FE1530F4F801808991890196918B808BD3
:102CF000FEE1FD1508F48ECF1092260281E080934C
:102D000046028CCFAF92BF92CF92DF92EF92FF92AA
:102D10000F931F93CF93DF93CDB7DEB77C01ADB692
:102D2000BEB6FC01C08066EE76E18C2D0E94CC28F8
:102D3000F701648140855185D4842DB73EB72D19A4
:102D400031090FB6F8943EBF0FBE2DBFEDB7FEB7E9
:102D500031967F018F012D2DFC0180810E94E717A4
:102D6000FF92EF921F92DF921F92CF928EED90E131
:102D70009F938F930E94CC312DB73EB7285F3F4F72
:102D80000FB6F8943EBF0FBE2DBF0FB6F894BEBE6F
:102D90000FBEADBEDF91CF911F910F91FF90EF90CD
:102DA000DF90CF90BF90AF900895CF93DF93EC0169
:102DB00066EE76E188810E94CC28488559856C8131
:102DC000FC018081DF91CF910C947118EF92FF92FA
:102DD0001F93CF93DF93EC018C85182F1F7741E071
:102DE00050E066EE76E188810E949D287C018C810E
:102DF0009D81AE81BF81892B8A2B8B2BF1F4809131
:102E0000BC0082FD10C061E089E10E94142561E0F0
:102E100088E10E9414251092B90088E48093B800DC
:102E200084E08093BC00812F880FF7018083DF91BD
:102E3000CF911F91FF90EF90089581E30E94F737A3
:102E40000F931F93CF93DF938C016FE179E1FC0126
:102E500080810E94CC28EC010E944035F8018481D9
:102E60009581A681B7818C839D83AE83BF83808546
:102E70009185A285B38588879987AA87BB87892B87
:102E80008A2B8B2B29F4DF91CF911F910F910895FD
:102E900084859585A685B7858C879D87AE87BF87F6
:102EA00080899189A289B389888B998BAA8BBB8BE6
:102EB000CE01DF91CF911F910F910C9492354F92DB
:102EC0005F926F927F928F929F92AF92CF92EF928A
:102ED000FF920F931F93CF93DF93EC014B012701D8
:102EE00038011F92CF927F926F925F92EF925F9321
:102EF0004F933F932F931F92AF9283EE90E19F9356
:102F00008F930E94CC318DB79EB70E960FB6F89472
:102F10009EBF0FBE8DBF88819981AA81BB81E816B3
:102F2000F9060A071B0750F0F40180819181A28104
:102F3000B3818E159F05A007B10720F48091270269
:102F4000882379F0DF91CF911F910F91FF90EF903F
:102F5000CF90AF909F908F907F906F905F904F90A9
:102F600008958DE10E94F737CF92DF92EF92FF92A2
:102F70006B017C0109C00E946626292F6C157D0516
:102F80008E052F0927FF09C08091BC0087FFF3CF72
:102F9000FF90EF90DF90CF90089580E30E94F73785
:102FA00024EA2093BC000E94B4178091B90090E0FD
:102FB000A0E0B0E080319105A105B10521F00897AE
:102FC000A105B10509F408958FE20E94F7377F92B9
:102FD0008F929F92AF92BF92CF92DF92EF92FF9229
:102FE0000F931F93CF93DF93782EC62F942EB52E79
:102FF000822E0E9466266B017C0120E8C20E28E327
:10300000D21E21E0E21EF11CC701B6010E94D017BA
:103010007092BB0084E88093BC00C701B6010E9497
:10302000B417AA24AA94AC0ECC23B1F0C92DDB2D81
:10303000B12C8FEFA81AB80AAC0EBD1E94E8992ED9
:1030400089918093BB009092BC00C701B6010E9499
:10305000B417AC16BD06A1F7C701B6010E94D01780
:10306000872D81608093BB0084E88093BC00C701FA
:10307000B6010E94B417DFEFD80D882009F158017E
:10308000CD2F84EC982ECC2369F09092BC00C70120
:10309000B6010E94B4178091BB00F50181935F01D6
:1030A000C15099F7F801ED0FF11DEF0184E880930D
:1030B000BC00C701B6010E94B4178091BB00888391
:1030C00084E98093BC00DF91CF911F910F91FF9015
:1030D000EF90DF90CF90BF90AF909F908F907F90B8
:1030E0000895BF92CF92DF92EF92FF920F931F93BA
:1030F000CF93DF93D82FC62FB42E152F0E946626AC
:103100006B017C0120E8C20E28E3D21E21E0E21E02
:10311000F11CC701B6010E94D017D093BB0084E810
:103120008093BC00C701B6010E94B4170FEF0C0FCB
:10313000CC23A9F0CB2DD12F10E00F5F1F4F0C0F28
:103140001D1F84E8B82E89918093BB00B092BC000B
:10315000C701B6010E94B417C017D107A1F784E9CF
:103160008093BC00DF91CF911F910F91FF90EF9062
:10317000DF90CF90BF9008958036A0F567FD32C0F4
:10318000E82FE695E695E695F0E0EE0FFF1FE35495
:10319000F04FA591B491109729F1877021E030E0AC
:1031A000A90102C0440F551F8A95E2F7CA014FB723
:1031B000F89412963C911297662381F0382B282FB1
:1031C000209512963C93129711963C9111972323C8
:1031D00011962C9311974FBFBD010895282F20956C
:1031E0003223EFCF8BE20E94F737FB012FB7F89421
:1031F0009281411105C08095892382832FBF089554
:10320000892B82832FBF0895FC011092260281E052
:103210008093470287898160878B448155816681CD
:10322000778180859185A285B385840F951FA61F20
:10323000B71F84839583A683B78381E00895FF92A7
:103240000F931F93CF93DF93EC01F88483E08F15E6
:10325000E0F048E150E06FE179E188810E949D282B
:103260008C0184E099E1F8019383828361EB73E33D
:103270008C810E94CC28F801958B848BF68ADF9193
:10328000CF911F910F91FF9008958EE10E94F73723
:10329000CF92DF92FF920F931F93CF93DF93EC01B6
:1032A00061EB73E38C810E94CC286C01F8840F2DB4
:1032B00010E0A8014D5F5F4F68E479E188810E94CA
:1032C0009D28FC01D182C082F2826C857D85A80197
:1032D0000396DF91CF911F910F91FF90DF90CF90D8
:1032E0000C94AA3A8BE10E94F7376F927F928F92EB
:1032F0009F92AF92BF92CF92DF92EF92FF920F9385
:103300001F93CF93DF934C01E62E142F6901DC014C
:1033100015967C901597872D867009F451C071FC25
:1033200039C0F401908181819CBD8DBDF72DF17074
:103330006F2E70FCC8C0EE2009F49CC08FEF810F87
:10334000112351F0F60190819EBD0DB407FEFDCF13
:103350009EB591938150B8F7662091F1072D06959F
:1033600006950695402F40954170D40112966D91B7
:103370007D918C91DF91CF911F910F91FF90EF90F4
:10338000DF90CF90BF90AF909F908F907F906F9085
:103390000C94F518ED91FC9141854270668177811E
:1033A00080850E94F518B72DB1706B2E70FC17C088
:1033B000D401CD91DC91AA24AA94A10E111126C0AA
:1033C000DF91CF911F910F91FF90EF90DF90CF9001
:1033D000BF90AF909F908F907F906F900895072D32
:1033E000069506950695402F4170F4016281738120
:1033F00084810E94F518D401CD91DC91AA24AA946D
:10340000A10E112309F4AECF66246394B12C8FEF83
:10341000A81AB80AAC0CBD1CD601FC9008E010E05C
:10342000898580FF35C0EE81FF81888580834F2D9F
:1034300040786B817C818D810E94F518FF0CEE81B4
:10344000FF8188858083110FE881F98190818A81CD
:10345000892391E009F490E0192B015009F7EE203F
:1034600011F0F6011083FFEFCF1ADF0AAC14BD0490
:1034700099F672CFF6019601210F311D2E173F07E5
:1034800009F46ACF81918EBD0DB407FEFDCFF6CF52
:103490004F2D40786B817C818D810E94F518FF0C47
:1034A000EE81FF8188858083110FE881F981908109
:1034B0008A81892391E009F490E0192BEE81FF8144
:1034C00088858083CACF73FA442740F9F40162816A
:1034D000738184810E94F518662463942CCFCF9366
:1034E000DF93EC0161EB73E388810E94CC2828858F
:1034F00039854C8160E0DF91CF910C947519FF9272
:103500000F931F93CF93DF93EC01188161EB73E36B
:10351000812F0E94CC280C81F884C9852F2D3C2F47
:10352000402F61E00E947519CF93FF921F920F9375
:103530001F921F9388EE90E19F938F930E94CC314E
:103540008DB79EB708960FB6F8949EBF0FBE8DBF7D
:10355000DF91CF911F910F91FF900895CF93DF934B
:10356000EC016A8D662309F453C0FC0150E031E0A0
:1035700020E0A38DB48D4C91958D942309F0532BAD
:103580002F5F330F33962613F4CF2C85922F952778
:1035900029F08D85852780959823D9F4888D5D87BE
:1035A00087FD03C0815070F1888F4C815D816E81F1
:1035B0007F8188859985AA85BB85840F951FA61F65
:1035C000B71F8C839D83AE83BF8381E0DF91CF9152
:1035D0000895982F909529238523822B8C879E858B
:1035E0009830E0F621E0290F2E87FE01E90FF11D4A
:1035F00087871092260281E0809348028FEF888FA0
:103600005D87D3CF1092260291E090934802CCCFF1
:1036100050E0BBCFAF92BF92DF92EF92FF920F9339
:103620001F93CF93DF93FC01A485B58596854785CD
:103630005089E18822893389F488A588B6887789FA
:10364000008D118DD28C808586279C9384FD20C0AF
:1036500085FD22C086FD24C087FD26C09C93862F51
:103660008295807F808768279C9364FD2AC065FDD2
:1036700025C066FD1CC067FD1EC09C93DF91CF91E5
:103680001F910F91FF90EF90DF90BF90AF90089542
:10369000EA01E88285FFDECFE901F88286FFDCCF10
:1036A000E501788387FFDACFE801D882D7CFF5012B
:1036B000708367FFE2CFE801D882DFCFE901F882AB
:1036C000D8CFFA01E082D3CF0F931F93CF93DF932C
:1036D0008C0160E97BE1DC018C910E94CC28FC012B
:1036E000D80114969C91828D9817B8F4292F30E058
:1036F000E901CC0FDD1F2C0F3D1FEF01C20FD31FBF
:10370000F801648580850E94BC186B8F7C8F8D8F3B
:10371000DF91CF911F910F91089585E20E94F737B5
:10372000CF93FC01C481C930B8F44C2F50E09A010A
:10373000220F331F420F531F455E5F4F60E97BE14D
:10374000FC0180810E949D28FC01C28F2EEA3AE193
:1037500033832283CF91089586E20E94F7375F92E8
:103760006F927F928F929F92AF92BF92CF92DF9291
:10377000EF92FF920F931F93CF93DF938C01FC0185
:10378000C080D180E280F38084809580A680B7805D
:1037900066246A94660E662301F1EA01712CFFEF3C
:1037A0006F1A7F0A640E751E59900E946626DC010E
:1037B000CB018C199D09AE09BF0988159905AA0589
:1037C000BB0598F3652DC8010E940A1B0E9466265E
:1037D0006B017C01C615D70539F7F801C082D1828B
:1037E000E282F382DF91CF911F910F91FF90EF90D2
:1037F000DF90CF90BF90AF909F908F907F906F9011
:103800005F9008950F931F93CF93DF93EC016AE3CA
:103810007CE188810E94CC288C01FC016185728545
:10382000838541E00E94F518488559856C81C8015F
:10383000DF91CF911F910F910C94AF1B0F931F93AA
:10384000CF93DF93EC016AE37CE188810E94CC286E
:103850008C01FC0161857285838540E00E94F5182A
:10386000488559856C81C801DF91CF911F910F91D7
:103870000C94AF1BCF92DF92EF92FF920F931F93A6
:10388000CF93DF93EC014BE150E06AE37CE1888168
:103890000E949D288C0160E08C810E941425F80113
:1038A00061877287838760E088850E941425F8010C
:1038B00064877587868760E08C850E941425F801EF
:1038C0006787708B818B60E088890E941425F801DE
:1038D000628B738B848B60E08C890E941425F801C5
:1038E000658B768B878B60E0888D0E941425F801AC
:1038F000608F718F828FF8940E9466266B017C0125
:1039000060E0C8010E940A1B0E9466267894DC01D0
:10391000CB018C199D09AE09BF09CC8CDD8CEE8CD6
:10392000FF8C8C159D05AE05BF0548F4C81AD90A51
:10393000EA0AFB0AF801C482D582E682F782DF91A7
:10394000CF911F910F91FF90EF90DF90CF9008954E
:103950004F925F926F927F928F929F92AF92BF929F
:10396000CF92DF92EF92FF920F931F93CF93DF934B
:103970008C01562E3A01FC0180809180A280B38098
:10398000C480D580E680F780EA012196FA01408064
:10399000642D607F0E94702F0E946626DC01CB019F
:1039A00088199909AA09BB098C159D05AE05BF05A3
:1039B00098F3642D6295607FC8010E94702F0E9469
:1039C00066266B017C01F80180849184A284B38413
:1039D000F1E05F1639F15A945A94852D90E00296E1
:1039E000680E791E5990652D607FC8010E94702F66
:1039F0000E946626DC01CB018C199D09AE09BF0926
:103A000088159905AA05BB0598F3652D6295607F19
:103A1000C8010E94702F0E9466266B017C01C615AA
:103A2000D70501F7F801C082D182E282F382DF91EB
:103A3000CF911F910F91FF90EF90DF90CF90BF90AB
:103A4000AF909F908F907F906F905F904F90089570
:103A5000CF92DF92EF92FF92CF93DF93FC01A0858C
:103A6000B18582858C93968581E089278687C82FCA
:103A7000C170C688D788E08CF18C97859F5FD1890B
:103A80009D1708F05FC0892F869586958695DF0182
:103A9000A80FB11D5A962C9130E0892F877002C073
:103AA000359527958A95E2F72170B701A601C217CF
:103AB000A9F033C0892F869586958695DF01A80FDA
:103AC000B11D5A962C9130E0892F877002C0359530
:103AD00027958A95E2F72170C2131FC04C0D5D1D1A
:103AE0006E1D7F1D9F5F9D1728F383E290E29383F5
:103AF000828384819581A681B781480F591F6A1FEF
:103B00007B1F448355836683778381E0DF91CF9168
:103B1000FF90EF90DF90CF900895978784819581F3
:103B2000A681B781480F591F6A1F7B1F44835583A5
:103B30006683778381E0DF91CF91FF90EF90DF90F4
:103B4000CF900895B701A601D0CFCF92DF92EF9228
:103B5000FF920F931F93CF93DF93EC01E885F985D4
:103B60008A8580830E9466263E8521E023272E8752
:103B70002F852F5F2F87213009F45CC02530E0F4BA
:103B80000C811D812E813F814A895B896C897D89E9
:103B9000DB01CA01800F911FA21FB31F8C839D837D
:103BA000AE83BF8381E0DF91CF911F910F91FF9092
:103BB000EF90DF90CF900895CC80DD80EE80FF8085
:103BC000AB01BC014C195D096E097F098E899F8983
:103BD000A88DB98D481B590B6A0B7B0BDB01CA0101
:103BE0000296A11DB11DB7FD34C0B595A795979557
:103BF0008795B595A795979587950A891B892C89EF
:103C00003D89800F911FA21FB31F8E8B9F8BA88FA2
:103C1000B98F28E23DE13B832A834C0D5D1D6E1D6B
:103C20007F1D840F951FA61FB71F8C839D83AE83B6
:103C3000BF83B8CF0C811D812E813F81AB01BC01B8
:103C4000401B510B620B730B4E8B5F8B688F798F10
:103C50009BCFDB01CA010596A11DB11DC6CFEF9216
:103C6000FF920F931F93CF93DF937C0160ED7EE172
:103C7000FC0180810E94CC28EC011E8511FF07C049
:103C8000DF91CF911F910F91FF90EF900895F70171
:103C9000048160857185F4840B3008F045C0FAE03A
:103CA000FF1508F441C0402F50E04A960E94AA3AFE
:103CB0001F86117312601E87802F880F880F880F50
:103CC000898BFF0CFF0CFF0CF88A002349F08A8DCA
:103CD0008F738A3229F485EA9DE19B838A830CC025
:103CE0008A899B89AC89BD898E8B9F8BA88FB98F60
:103CF00088E29DE19B838A83F8940E946626DC011A
:103D0000CB018058934FAF4FBF4F8C839D83AE83C1
:103D1000BF83CE010E9492357894DF91CF911F919D
:103D20000F91FF90EF90089587E20E94F7370F936D
:103D30001F93CF93DF938C0160E97BE1DC018C91D1
:103D40000E94CC28EC01D8011496EC918F898E0F3B
:103D50008F8BF8948E85E817D0F48E1BF0E03F9699
:103D6000EC0FFD1FDE011F962FEF280F30E0205FC4
:103D70003F4F2C0F3D1F91919D93A217B307D9F789
:103D80008E877894DF91CF911F910F9108951E86B1
:103D90008EEF888F7894DF91CF911F910F910895C6
:103DA0007F928F929F92AF92BF92CF92DF92EF92CB
:103DB000FF920F931F93CF93DF93EC0144E250E007
:103DC00060ED7EE188810E949D288C0178848C8042
:103DD0009D80AE80BF80CC84DD84EE84FF8461E072
:103DE000711001C060E0882D0E94BC18F801638743
:103DF0007487858761E08C2D0E941425F801608707
:103E00007187828788899989AA89BB89828B938BDC
:103E1000A48BB58B711018C091E08C149D04AE0476
:103E2000BF04C1F080E0892BF8018687DF91CF9134
:103E30001F910F91FF90EF90DF90CF90BF90AF90C8
:103E40009F908F907F90089591E18C149D04AE0413
:103E5000BF0441F780E2E7CF0F931F93CF93DF9327
:103E60008C0160E97BE1FC0180810E94CC28EC019F
:103E70000E944035F80184819581A681B7818C83A9
:103E80009D83AE83BF834085518562857385488756
:103E900059876A877B8780898D878C871E861F8AD2
:103EA0008EEF888F8485898F87FD10C0452B462B28
:103EB000472B29F4DF91CF911F910F910895CE01E7
:103EC000DF91CF911F910F910C94923584E20E9463
:103ED000F737CF93DF93EC018E8585FD0DC06885A4
:103EE00079858A8541E00E94F5188E85807381600E
:103EF0008E87DF91CF910895E885F9858A852FB760
:103F0000F8949281982B92839181892B81832FBF82
:103F10008E85807381608E87DF91CF910895CF93D6
:103F2000DF93FC01A385B4855C918785982F9770FA
:103F300021E030E001C0220F9A95EAF7982F96957C
:103F400096959695DF01A90FB11D5A969C915A97A7
:103F500045854523E1F0292B5A962C938F5F908954
:103F60008917E8F48787448155816681778186893E
:103F70009789A08DB18D840F951FA61FB71F8483CD
:103F80009583A683B78381E0DF91CF910895209533
:103F900029235A962C938F5F9089891718F3EF0184
:103FA000CF010E94691F8E8588608E87109226023D
:103FB00081E08093490280E0DF91CF910895CF9313
:103FC000DF93FC01A385B4859C9185858923E9F065
:103FD000868584608687878591E0980F97878034EF
:103FE00008F5448155816681778186899789A08DFE
:103FF000B18D840F951FA61FB71F84839583A68359
:10400000B78381E0DF91CF910895868582FFE3CF6A
:1040100017868FE89FE193838283CF01DF91CF9151
:104020000C948F1FEF01108ACF010E94691F8E85AB
:1040300088608E871092260281E08093490280E09A
:10404000DF91CF9108950F931F93CF93FC01C08907
:10405000CC23E9F1868585FD23C017868FED9FE18E
:104060009383828386899789A08DB18D880F991F4C
:10407000AA1FBB1F880F991FAA1FBB1F4481558110
:1040800066817781840F951FA61FB71F8483958350
:10409000A683B783C1E08C2FCF911F910F91089514
:1040A000A385B48595852FB7F89484FF21C0129617
:1040B0008C911297892B909512968C93129711964A
:1040C0008C911197982311969C932FBFC6CF8C018A
:1040D0000E94691FF80186858860868710922602F3
:1040E00081E0809349028C2FCF911F910F91089509
:1040F00012968C91129790958923DECF0F931F9380
:10410000CF93DF93FC01A189B2898D919C91119786
:10411000928B818B16968D919C911797C085D18536
:10412000228521113FC02FB7F894AC015527598340
:1041300048832FBF20914A0230914B0211963C9345
:104140002E93B0934B02A0934A02A189B289109793
:1041500059F5278530898217930741F08385948527
:10416000A585B6850097A105B10531F480E0DF9102
:10417000CF911F910F910895448155816681778178
:10418000840F951FA61FB71F84839583A683B783CB
:1041900083E091E29383828381E0DF91CF911F914D
:1041A0000F9108958883C6CF12964D915D916D91C0
:1041B0007C911597278530898217930741F0838575
:1041C0009485A585B6850097A105B10551F4448372
:1041D00055836683778381E0DF91CF911F910F91A3
:1041E00008950481158126813781800F911FA21FB8
:1041F000B31F2B2F84179507A607270B27FFE7CFA1
:1042000080E20E94F73781E20E94F7372F923F92B7
:104210004F925F926F927F928F929F92AF92BF92D6
:10422000CF92DF92EF92FF920F931F93CF93DF9382
:1042300000D01F921F92CDB7DEB77C012DB73EB7DD
:104240003D832C8366EE76E1DC018C910E94CC28C4
:104250009B838A83F701F481F983D70118966D90C7
:104260007C9019971C968D919D910D90BC91A02DDD
:1042700080FD6BC01C012D01569447943794279400
:10428000F701E088F188C22CD12CF9810F2F10E0C2
:10429000C8018C0D9D1D2DB73EB7281B390B0FB6DD
:1042A000F8943EBF0FBE2DBF8DB79EB701965C013F
:1042B000A801B3010E94AA3A4501800E911E840113
:1042C000222DA3016981AA81BB818C910E94E717ED
:1042D000C114D10499F0CE0CDF1CF4019601D70172
:1042E0008D917D018095908189238083D9019D9155
:1042F0009D01892B8193CE14DF0489F76981620DBA
:10430000A501EA81FB8180810E947118EC81FD8109
:104310000FB6F894FEBF0FBEEDBF0F900F900F9039
:104320000F900F90DF91CF911F910F91FF90EF9021
:10433000DF90CF90BF90AF909F908F907F906F90C5
:104340005F904F903F902F9008958FE10E94F73734
:104350001F93CF93DF93EC01162FAC89BD89109783
:10436000B9F01296ED91FC9113978D919C91119754
:104370009D8B8C8B11961C921E9213961C921E92F2
:104380001297612FCD011995AC89BD89109749F716
:104390001092260281E080934C02DF91CF911F9111
:1043A0000895FC013897968990FF08C0608D678B4F
:1043B0009A7F9460968BCF010E94A82180E0089597
:1043C000FC0186898460868B1092260281E08093AE
:1043D0004C02448155816681778180899189A289C7
:1043E000B389840F951FA61FB71F84839583A68367
:1043F000B78381E00895FC01A085B1859C918285F9
:104400008923D1F0818D80958170C9F4838D81508D
:1044100031F1838F448155816681778187859089C9
:10442000A189B289840F951FA61FB71F8483958326
:10443000A683B78381E00895818D817039F38BE283
:104440009AE29383828383899489A589B689848338
:104450009583A683B783828D838F81E00895A78992
:10446000B08D56969C915697892F817090FFE3CF1F
:10447000648D57966C9357979A7F946056969C9349
:104480005697CD010E94A82180E00895FC018091FB
:104490007A0086FF0EC084819581A681B7818853FA
:1044A000984FAF4FBF4F84839583A683B78381E036
:1044B0000895828D90910902981781F09F3F59F7D6
:1044C00080930902982F987090937B008770806486
:1044D00080937C0087ED80937A00DDCF8FEF80930F
:1044E00009022091780030917900858D968D891789
:1044F00080F544895589240F351F8F5F358B248BB8
:10450000858F891760F18689978928173907C8F13F
:10451000808D918D82179307A0F1138E1092260241
:1045200081E080934D024089518962897389808539
:104530009185A285B385840F951FA61FB71F808B19
:10454000918BA28BB38B84839583A683B78381E001
:10455000089581E0358B248B858F8917A0F64481DF
:1045600055816681778184859585A685B785840F79
:10457000951FA61FB71F84839583A683B78381E009
:104580000895838D8F5F838F948D891738F2809182
:1045900027028111C2CF8AE10E94F737EF92FF9282
:1045A0001F93CF93DF937C01FC01108165E473E2DC
:1045B000812F0E94CC28EC01F8948E8980FF09C0DD
:1045C000F70164816F8B8A7F84608E8BCE010E949D
:1045D000A821CE010E944035CE0108960E944035A8
:1045E0001E8A8F8978941F921F921F921F921F928A
:1045F0008F931F921F921F921F9382EF90E19F93C0
:104600008F930E94CC318DB79EB70C960FB6F8945D
:104610009EBF0FBE8DBFDF91CF911F91FF90EF9096
:104620000895CF93FC01C0816BED73E28C2F0E9443
:10463000CC28FC01F894818D338944895589668999
:104640007894A085B1852C919285922321E009F47C
:1046500020E01F922F936F935F934F933F93869524
:1046600081701F928F931F92CF9387EF90E19F935A
:104670008F930E94CC318DB79EB70C960FB6F894ED
:104680009EBF0FBE8DBFCF91089549E150E065E414
:1046900073E2FC0180810E949D2820EE31E2FC0142
:1046A0003383228321ED31E2338722870895EF920D
:1046B000FF920F931F93CF93DF938C0165E473E216
:1046C000FC0180810E94CC28EC01F8948E8980FF47
:1046D00013C07E01F8E0EF0EF11CC7010E944035C7
:1046E000F80184819581A681B7818C879D87AE87EB
:1046F000BF87C7010E9492357894DF91CF911F91B7
:104700000F91FF90EF9008950F931F93CF93DF9336
:104710008C016BED73E2FC0180810E94CC28EC01DE
:104720000E944035F80184819581A681B7818C83F0
:104730009D83AE83BF8380859185A285B3858F8756
:10474000988BA98BBA8B84858A8F882361F1F801B5
:1047500040895189628973894B875C876D877E8721
:104760002BE23AE23B832A838B8F84899589A68941
:10477000B789892B8A2B8B2BA1F482E0898F65E482
:1047800073E2F801808D0E94CC28988F8F8BF801FE
:10479000848D8C8FCE01DF91CF911F910F910C945E
:1047A000923583E0EBCF188E1F8A198EDF91CF915F
:1047B0001F910F9108950F931F93CF93DF93EC01F7
:1047C0004DE150E06BED73E288810E949D288C01E1
:1047D00068858C810E94BC18F80160877187828788
:1047E000DF91CF911F910F910895CF93DF93EC014B
:1047F0000E944035CE0108960E944035EC89FD8923
:10480000309751F09081818113821282118210823F
:10481000E92FF82F3097B1F71D8A1C8A188E1F8A4E
:104820001E8ADF91CF9108950F931F93CF93DF934B
:104830008C0165E473E2FC0180810E94CC28EC01CC
:10484000F8940E94F52381E08E8BF8018481958194
:10485000A681B7818C839D83AE83BF83808591853C
:10486000A285B385888B998BAA8BBB8B892B8A2BCE
:104870008B2B19F0CE010E949235F8018485888F28
:104880007894DF91CF911F910F910895B0990FC047
:1048900080914F0290915002019610920502109261
:1048A0000402909307028093060281E0089581E05C
:1048B00086BB80914F0290915002019690935002D6
:1048C00080934F0220E030E83093050220930402E9
:1048D000909307028093060281E00895CF93DF93BF
:1048E000FC0184819581A681B781448955896689B7
:1048F0007789C58DD68D3881C42FC170278D23232C
:1049000031E009F430E0C31761F04F5F5F4F6F4F44
:104910007F4F448B558B668B778B808F918FA28FC7
:10492000B38F4089518962897389272F48175907A6
:104930006A072B0B27FF18C0248D2160248F448524
:10494000558566857785840F951FA61FB71F808BB9
:10495000918BA28BB38B1092260281E080934E0242
:1049600084819581A681B781408551856285738553
:10497000840F951FA61FB71F84839583A683B783D3
:1049800081E0DF91CF9108950F931F93CF93DF9331
:104990008C0166EF74E2FC0180810E94CC28EC015E
:1049A0000E944035F80184819581A681B7818C836E
:1049B0009D83AE83BF83408551856285738548871B
:1049C00059876A877B8744855585668577854C87B7
:1049D0005D876E877F87888B998BAA8BBB8BCE0177
:1049E000DF91CF911F910F910C9492350F931F93EC
:1049F000CF93DF93EC0140E250E066EF74E28881F0
:104A00000E949D288C0168858C810E94BC18F80149
:104A1000658F768F878F8EE694E293838283DF9112
:104A2000CF911F910F910895803678F5E82FE69584
:104A3000E695E695F0E0EE0FFF1FE354F04FA591E9
:104A4000B491109711F1877021E030E0A90102C004
:104A5000440F551F8A95E2F7CA013FB7F8941296A2
:104A60002C91129761110FC04095242312962C931C
:104A7000129711962C911197282B11962C93119720
:104A80003FBFBD010895242BF1CF8CE20E94F73780
:104A90001F920F920FB60F9211240BB60F92EF9246
:104AA000FF920F931F932F933F934F935F936F93B7
:104AB0007F938F939F93AF93BF93CF93DF93EF93A6
:104AC000FF930DC07A0180918400909185008E192A
:104AD0009F0997FD7CC07894B2999AC0F894C091D0
:104AE0002202D0912302EA81FB81309709F0ADC008
:104AF000EA8DFB8D2C8D20838E859F85019709F48F
:104B0000C1C09F878E8788859985AA85BB854C8182
:104B10005D816E817F81480F591F6A1F7B1F4C8307
:104B20005D836E837F8320832CA525FF0EC00C85BB
:104B30001D85012E000C220B330B800F911FA21F2D
:104B4000B31F88879987AA87BB87E881F981048189
:104B5000158126813781872F401751076207830B04
:104B600087FDB0CF7801F0932302E0932202A09159
:104B70002402B091250214960D911D912D913C9126
:104B80001797872F401751076207830B87FFFD0197
:104B9000DF010190F081E02D0481158126813781AC
:104BA000872F401751076207830B87FFF1CFF983E7
:104BB000E883CD93DC93D0932502C09324028091A7
:104BC0008400909185008E199F0997FF84CF863AC3
:104BD0009F4F0CF06AC0F0928900E0928800FF912C
:104BE000EF91DF91CF91BF91AF919F918F917F9185
:104BF0006F915F914F913F912F911F910F91FF9076
:104C0000EF900F900BBE0F900FBE0F901F90189556
:104C1000F89480918400909185009701281B390BAE
:104C20002038314CDCF12091260227FF43C09C0143
:104C3000205C304E30938B0020938A0024E026BB0A
:104C400090938900809388003ECFCE0119954C81C6
:104C50005D816E817F81811178CFE881F981E48067
:104C6000F580F0932302E093220280912402909138
:104C70002502C817D90709F026CFF0932502E09343
:104C8000240221CFCE010E94EA2CEA8DFB8D9C8D5F
:104C900090834C815D816E817F81DDCF20912702E1
:104CA0002111C1CF8AE20E94F7377894B299B0CF30
:104CB000F89409CF9C012854344F30938B002093F3
:104CC0008A0024E026BB7C01F39485CF2FB7F894AB
:104CD000609184007091850080914F029091500204
:104CE000B09902C02FBF08952FBF7F3FE1F3019617
:104CF000089578940E9410362FEF260F6623C1F096
:104D0000FC018FEF9FEF31918327082E8295807FE2
:104D10008025092E982F82958F70082686959827D2
:104D20008927880F880F880F8025215060F7089504
:104D30008FEF9FEF08950F931F93FC01A489B5890E
:104D400086898C9393A181E0892783A3448155812F
:104D50006681778180FF12C00085118522853385A9
:104D6000400F511F621F731F82FD12C04483558381
:104D70006683778381E01F910F91089504851585DF
:104D800026853785400F511F621F731F82FFEECFAC
:104D90000089118922893389872F401751076207BB
:104DA000830B87FDE3CF8FEF96E293838283B90174
:104DB000A801448355836683778381E01F910F9117
:104DC00008950895FC018081A481B58140855185B5
:104DD000628573859FB7F894813061F0823019F055
:104DE0004C939FBF08954D935D936D937C93139760
:104DF0009FBF089511965C934E939FBF08958F9225
:104E00009F92AF92BF92CF92DF92EF92FF921F9349
:104E1000CF93DF93EC01EF8CF8A0E114F10409F4D7
:104E2000F0C0F7018081918198A38F8F8680978051
:104E3000A084B18411E081149104A104B10409F4A7
:104E4000A1C06C897D898E89412F0E94F5188091BF
:104E50004A0290914B02F70191838083F0924B02BA
:104E6000E0924A0281149104A104B104E9F08B8D0F
:104E70009C8DAD8DBE8D88169906AA06BB06A0F442
:104E80004F89588D698D7A8D4115510561057105E0
:104E900009F45BC08C819D81AE81BF81480F591F91
:104EA0006A1F7B1F166022C08BA131E08114910420
:104EB000A104B10409F068C084FB992790F921E0AE
:104EC0009227391709F443C04F89588D698D7A8D1F
:104ED0004115510561057105D1F18C819D81AE812E
:104EE000BF81480F591F6A1F7B1F1460EF8DF8A107
:104EF000309709F077C02BA1488B598B6A8B7B8B3D
:104F00002071212B2BA311FF5FC0880D991DAA1DB5
:104F1000BB1D12FD52C02BE936E23B832A838C83F2
:104F20009D83AE83BF8388869986AA86BB868B8D38
:104F30009C8DAD8DBE8D88199909AA09BB098C87F6
:104F40009D87AE87BF8781E011C012608BA1EF8D76
:104F5000F8A13097D9F4188A198A1A8A1B8A8071A5
:104F6000812B8BA3812F827011FD34C0DF91CF91F3
:104F70001F91FF90EF90DF90CF90BF90AF909F90E8
:104F80008F90089510E05DCF30E096CF428153813D
:104F900064817581488B598B6A8B7B8B8071912FD3
:104FA0009460892B8BA311FF0FC08C819D81AE81F2
:104FB000BF81880D991DAA1DBB1D2B2F8417950736
:104FC000A607270B27FDA7CF4C835D836E837F83C6
:104FD00081E0CCCF40E050E0BA018C819D81AE8170
:104FE000BF8193CFC280D380E480F580872F4C159A
:104FF0005D056E058F0987FD07C08BA1B701A6016E
:10500000C9CF85E10E94F73783E10E94F737FC01A1
:1050100085818F9384818F9380811F928F9386E007
:1050200091E19F938F930E94CC310F900F900F903E
:105030000F900F900F900895DC012C911496ED9134
:10504000FC9115973FB7F8942130E9F02230B1F088
:10505000808190E0A0E0B0E03FBFBF93AF939F930B
:105060008F9381E091E19F938F930E94CC310F90B9
:105070000F900F900F900F900F9008958081918165
:10508000A281B381E9CF80819181A0E0B0E0E4CF3B
:10509000CF92DF92EF92FF92FC01408151816281B9
:1050A00073812481E9EBFFE085919591A591B491FD
:1050B000481759076A077B0770F56A017B01C20E22
:1050C000D11CE11CF11C8C159D05AE05BF0500F53A
:1050D000841B90E09A01225C3A4F3F932F939F9359
:1050E0008F937F936F935F934F938FE191E19F93A2
:1050F0008F930E94CC318DB79EB70A960FB6F89465
:105100009EBF0FBE8DBFFF90EF90DF90CF900895B0
:10511000822F90E0DFCF80E090E0DCCF809127020B
:10512000882329F0823011F010922702089582E03E
:105130000E94F7378EE00E94F737CF93DF9390916C
:105140003702891730F5C82FD0E0CC0FDD1FCC0F08
:10515000DD1FE0913802F0913902EC0FFD1F8081D4
:105160009181892BB1F480913F0290914002892B6B
:1051700081F471836083CA010E94A93120913802B1
:1051800030913902C20FD31F9B838A83DF91CF9165
:1051900008958BE00E94F73790913702891788F4C1
:1051A000E0913802F091390294E0899FE00DF11D01
:1051B0001124808191818617970719F48281938148
:1051C00008958CE00E94F737CF92DF92EF92FF9222
:1051D000CF93DF93C0913F02D09140022097B9F165
:1051E00021976E01E12CF12CA0913E02B0E02097B6
:1051F000D9F020E030E040E050E0BA0180913C027C
:1052000090913D02FC01E20FF31F4F5F5F4F6F4F24
:105210007F4F2A0F3B1F820F931F918380834C1572
:105220005D056E057F0550F380913C0290913D0233
:10523000CA9FF001CB9FF00DDA9FF00D1124E80F0B
:10524000F91F1182108290934B0280934A02DF91E2
:10525000CF91FF90EF90DF90CF900895FC011382E3
:105260001282118210826F3F710509F07CF48091E7
:105270003F0290914002892B49F480913E0290E0D8
:105280008617970714F460933E0208950E949A28A7
:105290002FB7F89480914A0290914B02009749F001
:1052A000FC014081518150934B0240934A022FBF31
:1052B00008958FE00E94F737CF92DF92EF92FF922E
:1052C0001F93CF93DF936A017B0165ED7FE0FB01C4
:1052D0009491981749F0675F7F4FF0E165367F073B
:1052E000B1F784E30E94F737FB013896949191FF60
:1052F0001AC030EAC3163FE5D306E104F10408F40E
:1053000083C0C0E8CC16CEE7DC06C1E0EC06F104B1
:1053100008F090C0D0E4CD16DFEBDD06E104F10427
:10532000C8F414E022C0F8EBCF16F7E4DF06E1047E
:10533000F10490F0A0ECCA16AEE3DA06A1E0EA06AA
:10534000F10408F475C0C114BBEFDB06B4E0EB0652
:10535000F10438F315E009C037EFC31638E0D3067F
:10536000E104F10408F05FC011E0FB013396A59160
:10537000B491FB013596C591D491FB0137963491D8
:10538000E82FE695E695E695F0E0EE0FFF1FE35473
:10539000F04F459154918770E1E0F0E07F0101C04A
:1053A000EE0C8A95EAF7FB013196C590D490892FCF
:1053B0008170A038B10509F44BC0EFB7F89498811B
:1053C000977011F0191341C0188381112EC09FB737
:1053D000F894622F70E0E601798368839FBF9C9107
:1053E0003160392B3C93DA0111969C911197E92A8F
:1053F0001196EC92EFBFB601DF91CF911F91FF9014
:10540000EF90DF90CF900895A8EDCA16A7E2DA06D4
:10541000E104F10468F4B7EFCB16B8E0DB06E10471
:10542000F10408F4A1CF12E0A0CFE6012883D7CF82
:1054300013E09BCFC114EBEFDE06E4E0EE06F104CF
:1054400010F416E092CF17E090CF82E30E94F73776
:1054500083E30E94F7370F931F93FC01A085B1856A
:105460009C9104811581268137814385548565850A
:105470007685400F511F621F731F8285892361F05B
:10548000818D8095817059F044835583668377833D
:1054900081E01F910F910895818D8170A9F7438B51
:1054A000548B658B768B8BEF91E293838283CF0154
:1054B0001F910F910C94FB21CF93DF93EC0164E9D2
:1054C0007CE288810E94CC28FC018C819D81AE8188
:1054D000BF81892B8A2B8B2B51F420E0F89494A563
:1054E0009D7F922B94A77894DF91CF91089522E02D
:1054F000F5CF0F931F93CF93DF938C01EC01A89707
:10550000CE010E9440351C821D821E821F821A8A93
:105510001B8A1C8A1D8A88A199A1AAA1BBA12CA5BE
:105520004E855F856889798924FD04C076956795E5
:1055300057954795841B950BA60BB70BB7FD40C03D
:10554000B095A095909581959F4FAF4FBF4F88A381
:1055500099A3AAA3BBA31E861F86188A198A247141
:1055600028602CA76D8D7E8D8F8D40E00E94F518F0
:105570004CA544706A8D7B8D8C8D0E94F518D801E6
:105580001497ED91FC9111973097A9F040914A0240
:1055900090914B0201C0F9012081318140839183B8
:1055A000F0934B02E0934A024E2F9F2F21153105B5
:1055B00091F71D921C92DF91CF911F910F91089549
:1055C000B095A095909581959F4FAF4FBF4FB8CFA5
:1055D0000F931F93CF93DF938C0164E97CE2FC016E
:1055E00080810E94CC28EC0165E473E2F80184819B
:1055F0000E94CC28BE01685D7F4F4FB7F8942AA562
:105600003BA5232B89F429E73AE23BA72AA7FC0113
:105610002489358939A728A7758B648B4FBFDF9103
:10562000CF911F910F91089589E10E94F737CF9391
:10563000DF93EC0164E97CE288810E94CC28FC01C4
:105640008C819D81AE81BF81F894468557856089A4
:105650007189452B462B472B79F484839583A68348
:10566000B783828B938BA48BB58B84A5877F84A70C
:105670007894DF91CF91089586E10E94F737CF9318
:10568000FC01C08164E97CE28C2F0E94CC28FC01E3
:10569000F89480A191A1A2A1B3A124A54685578524
:1056A0006089718924FD04C0769567955795479563
:1056B000841B950BA60BB70BB7FF07C0B095A09541
:1056C000909581959F4FAF4FBF4F7894B054BF9343
:1056D000AF939F938F931F92CF938CEF90E19F9303
:1056E0008F930E94CC318DB79EB708960FB6F89471
:1056F0009EBF0FBE8DBFCF9108954F925F926F9264
:105700007F92BF92CF92DF92EF92FF920F931F93FF
:10571000CF93DF93FC01B08062E57CE28B2D0E9489
:10572000CC28EC014D805E806F807884C984DA8457
:10573000EB84FC840E946626DC01CB018419950968
:10574000A609B7098C159D05AE05BF0568F40E9432
:105750006626DC01CB0184199509A609B7098C15C9
:105760009D05AE05BF0598F3CD84DE8468817981FF
:105770008A81A0918400B09185000B811C819E01DB
:10578000215F3F4F7901C20ED31ECE14DF0409F40E
:1057900057C0F70191917F0128E013C0F894409120
:1057A000840050918500FB01808380837894FA0106
:1057B000EA1BFB0BE017F107D8F4990FDA0121502F
:1057C00021F397FFEBCFF89440918400509185002E
:1057D000FB0180837894FA01EA1BFB0BE017F107C9
:1057E00038F4990FF894FB0180837894DA01E7CFBD
:1057F00040E00E94F5180E9466266D837E838F83A9
:10580000988780E01F928F931F92BF928CEA90E15D
:105810009F938F930E94CC310F900F900F900F9019
:105820000F900F90DF91CF911F910F91FF90EF900C
:10583000DF90CF90BF907F906F905F904F900895D2
:105840000E9466266D837E838F83988781E0DACFFE
:105850000F931F93CF93DF93EC0162E57CE2888185
:105860000E94CC280C811D812E813F8148856C854A
:105870007D8517FD14C050E0DA01A00FB11FEC01C7
:10588000ED85FE85EA17FB0750F0015F1F4F800F83
:10589000911FDF91CF911F910F910C94AA3A88E24A
:1058A0000E94F7376F927F928F92CF92DF92EF92A2
:1058B000FF92CF93DF93EC0160E08C810E9414256E
:1058C0003B01882EC884D984EA84FB84D7FC24C099
:1058D000A601415F5F4F62E57CE288810E949D28BE
:1058E000FC01608271828282D686C5868C859D8508
:1058F0009483838388899989AA89BB8981879287C0
:10590000A387B487DF91CF91FF90EF90DF90CF9086
:105910008F907F906F90089589E20E94F737FC0185
:10592000648180810C9414250F931F93CF93DF9390
:105930008C014DE250E064E97CE2FC0180810E9430
:105940009D28EC01F801848518160CF041C064E034
:105950006CA7F80184810E9414256A8F7B8F8C8F3D
:1059600060E0F80180850E9414256D8F7E8F8F8FF7
:1059700080E090E0A0E0B0EC88A399A3AAA3BBA329
:10598000F80180899189A289B3898E8B9F8BA88F1A
:10599000B98F6BE070E0CE0184960E942E298E892B
:1059A0009F89A88DB98D8997A105B10548F087E237
:1059B0009EE29B838A83DF91CF911F910F9108957F
:1059C0008CA580618CA7DF91CF911F910F910895D5
:1059D00060E0BECFCF92DF92EF92FF92CF93DF9342
:1059E000FC01A4A1B5A1109761F416861786108A50
:1059F000118A80E0DF91CF91FF90EF90DF90CF9000
:105A000008958D919C91119795A384A316968D91DD
:105A10009C911797958784871296CD90DD90ED9095
:105A2000FC901597AC01092E000C660B770B4C0D02
:105A30005D1D6E1D7F1D408751876287738724A57A
:105A400024FD43C04289538964897589C40ED51EDB
:105A5000E61EF71EC28AD38AE48AF58AC482D582FA
:105A6000E682F78218968D919C911997AC0160E0BF
:105A700070E0440F551F661F771F46875787608B5E
:105A8000718B1A962C911A9720FD3FC040A151A10D
:105A900062A173A1480F591F611D711D40A351A33D
:105AA00062A373A380914A0290914B0211969C933A
:105AB0008E93B0934B02A0934A0281E0DF91CF9185
:105AC000FF90EF90DF90CF900895448155816681DB
:105AD0007781C40ED51EE61EF71EC482D582E682EB
