:100000000C9401080C942E080C942E080C942E08C5
:100010000C942E080C942E080C942E080C942E0888
:100020000C942E080C942E080C942E080C942E0878
:100030000C942F310C942E080C942E080C942E083E
:100040000C942E080C94A1250C942E080C942E08C8
:100050000C942E080C942E080C942E080C942E0848
:100060000C942E080C9406310C94DC300C942E0861
:100070000C942E080C942E080C942E080C942E0828
:100080000C942E080C942E080C942E080C942E0818
:100090000C942E080C942E080C942E080C942E0808
:1000A0000C942E080C942E080C942E080C942E08F8
:1000B0000C942E080C942E080C942E080C942E08E8
:1000C0000C942E080C942E080C942E080C942E08D8
:1000D0000C942E080C942E080C942E080C942E08C8
:1000E0000C942E080C941D250C9429110C949F1F20
:1000F0000C94C0110C94AA1D0C9407200C948E181B
:100100000C94B1220C94C8110C944F210C94E62D40
:100110000C94380F0C94AC120C94A8140C945D172A
:100120000C94370F0C943E220C94D0220C94D815CA
:100130000C94DC0F0C94D82A0C941E1A0C94D9142D
:100140000C9461150C94F70D0C94981A0C94360EBF
:100150000C94A2110C94B7170C94EB0F0C94E7239A
:100160000C94EE210C9442230C94812A0C9499193E
:100170000C9478300C94F9210C94DC0D0C94C62D61
:100180000C9469280C94F10E0C94550F0C94981E45
:100190000C9475300C94721D0C944F250C945F0ECA
:1001A0000C94FF200C946E160C94392B0C94D030C8
:1001B0000C94EA150C946A0F0C9440200C941716BA
:1001C0000C9414290C94B6100C941E1C0C947A10E8
:1001D0000C949F240C94D41C0C9442140C9447222D
:1001E0000C94151F0C943E290C94892B0C948E1D95
:1001F0000C94890E0C94A7160C94D3170C947B299D
:100200000C94DB130C948C290C94682B0C943314F1
:100210000C942E2A0C9466120C94BD300C949C20E5
:100220000C9470180C945D140C94960F0C94261872
:100230000C9475100C94BB2A0C9496190C94C82D30
:100240000C9493210C94A4150C94C7240C94001DB9
:100250000400040000040700040002000004000081
:10026000000000000004000000000404040404076F
:100270000404000404000000000004070704000058
:100280000400020204040004040004040404000046
:10029000040404000203000002040000020200043F
:1002A0000000040004040404000400040000000032
:1002B0000000000001020102AA02960F02010001E3
:1002C0007E0F5D1703010001A902D8150404000484
:1002D000520F1D2505020002560F001D06000100E9
:1002E0000000DC0F07020002AA02751008020002DB
:1002F000560F072009010001A902A4150A030003F3
:100300005E0FE7230B020002A702EA150C020002AF
:10031000A702A2110D000100000078300E080008AD
:100320009F0217160F0600069902981A1002000283
:10033000560F392B11020101790F550F12030003DB
:1003400096023E22130400049202EB0F14010001F6
:10035000A902B717150500058D029C20160300039E
:100360008A026E1617040003580F5F0E1805000569
:100370008502261819010001A902892B1A0300021F
:100380006A0FB1221B0800087D02AC121C02000299
:10039000A702682B1D0500037A028C291E020002A9
:1003A000560FF9211F0300026A0F721D200400047A
:1003B000730FD41C21040004660FA7162203000348
:1003C0008A02360E230300026A0FDB1324030002A5
:1003D0006A0F7B29250001000000D03026060006A8
:1003E0007402D022270001000000753028010001AE
:1003F000A902692829040004520FC8112A03000326
:1004000071024F252B0001000000BD302C040003B9
:100410006E029F1F2D0400046A027A102E02000251
:10042000A70270182F0301035E0F380F300300037B
:100430006C0F1E1A310300026A0F8E1D3206000671
:1004400074024722330400035B0F142934020102B3
:10045000A7026A0F350500056502F70D3602000296
:10046000A702661237010001A902C011380800086E
:100470005D02AA1D3905000558023E293A03000213
:100480006A0F890E3B04000355022E2A3C0200022B
:10049000560F61153D0300026A0F42233E00010022
:1004A0000000D3173F020002560FBB2A400500058B
:1004B0005002402041020002560FB61042030003D2
:1004C0005E0F291143040004520F812A44000100E9
:1004D0000000370F45000500000078DA9D59796F5C
:1004E0001BB915FF2A5C0141BB85636846A75DE423
:1004F0000F1FCAD6DD38F14671D3A22888C90C2552
:10050000119E6BE7F0D185BF7BDFC16B246D166850
:100510008040E4F0F1F1F1BDDFBBE8DF46DF7A9D1A
:1005200067F25135ADAECA76743EDAA6E9B9F8F392
:100530004F57573F8AD9E9F4742CBEE9B2EF74DE05
:10054000E2D78FF7E2D24C7F14F1693C3F8DC7D1DF
:100550007C1CC5B3D1C928AD8A22293360F2DB28BF
:10056000C9F32A4D3A252B9DB522ADFAB27BF72669
:100570001D9DC7E31338B2EBE02C99A40F0296E15E
:100580007B40B00CD6B3CCAED7554B3FBA7CF7A668
:1005900017759FE7B2AF897E12FB0DBFF6AA79717E
:1005A0002C418007A46E54DBC94EA70F2DCFBA266D
:1005B00029DB4277D21E2A7409F737F245708F5C27
:1005C000258D6C777D97554FE5E87C8E572B377AD4
:1005D0000B123DE793E9CC1ED1D65AF210E4187BFA
:1005E000AA32C9ABADD4A5939EC41E9DCFA68EC61C
:1005F000886C29782ABD1A668E92BEA966C86BA03F
:100600008269EC8833BDD55D92CBAAEFF6363C26E5
:1006100079AF709EA94DD2E79D741F8AE459667D1B
:10062000937400001233F6622A306757D5035EE9EF
:10063000E0F0D81FBECBA6D3C5726C899B569AB387
:10064000951D6453379AB9D1DC8D166EA4F2E4C5BA
:10065000D90CB4E14DA0E3D41E0043D0235B15A018
:1006600086BF001930376F9A2FDCA65255B57E56DB
:10067000F99E4EB2A44B64ABFF0B5B773DE0BC939D
:10068000A88B002AAD824FBA0C25F14CEBA7E2886B
:100690009ED317808FE761B4BCEBF7F50E5F0E14A5
:1006A0001F79AB03B4F6D113C5E1AAC3E7211885BE
:1006B0005D9245BB7DF7E62FE090F164B0F7497796
:1006C0003B105DA6168070B1E0EC6E71163B33A650
:1006D000CE8C6D9A3FB8B1CEDCF0A54CE5D062224D
:1006E0002D32B96FC4C9323841D5B5C7344EA5C112
:1006F00056A61B3B64B72462C6B917B1DBA9A6A8EE
:10070000C035EA5C1D5140B82CBB975AB18B7A5C5E
:100710007745DA278DB35DF32C0FFC4A74EE232264
:10072000A3D3856258055C1ABCBB5321E83853DF5C
:100730007A805B5503DDD24E81CB96B0C6B6881663
:1007400076A1510944B826530D9E87D8658CC5966D
:10075000E0A9D19D3AA0405011E11438A942355B7F
:1007600055A62F121D158438836FECB5725715EA04
:10077000201CB6495187083573170C87E11264F7BE
:100780009182EFEB94DCE8ED5635788B16010C1A6C
:1007900088A6FE700AC62054D229A721906DA321F5
:1007A0003A82CB49D6A1489B9483CEC9680BDE46DA
:1007B00062C2CD26664A44A04CB3DCD7680738082D
:1007C000D64DB8912D9C2801702E98E298553D3D4C
:1007D000DB23432B58326F9109047D0C264595E9A4
:1007E000CD8B04733B5E8D220F1226278008B86ADA
:1007F0009CEA8CB7B11987F4F84DE6CAC47D43680A
:10080000CC79703C44379DA9B283C345B5D9C02982
:10081000E4432E1980783682D1359C3EA7E360A54B
:10082000AF33AF6BCE98BB3E3866066CD8287B6979
:10083000EC78A68463C76EC37E46FB3FD154783400
:1008400099F8E7679095B7B071A7D287200FC60BCC
:100850002BC35E1E7412D41578ECFEF9FE1253BB46
:10086000FF58C8F89D1A21107320259A7242FC7A0D
:10087000752CD53A76559832E673BB652F6338727E
:10088000A7041077698931ECB94C873767AFB7B0E7
:10089000D851B2835F0D86027C51B2022C2DCC90D0
:1008A000F6B33BED9F075A85539026BCC35E9D303F
:1008B0003A5F1CD0D00528C13996836C07E2CF7906
:1008C00053A99E8D0410CF1DE275438CE71326B209
:1008D000EAF883CC09F7437131E579EC87B876AB58
:1008E0001D9603613A30D501F8B50AAA041033F217
:1008F0005BDA6AD33D258D0AF716BAAD6CF02FAAE4
:10090000561FCB80074C6763664AF5E5C6233570F2
:100910007448609C5CBF17B4E6D190EA78CC8A51E9
:10092000D39C46254646F0778D85848B0DF1CC13FC
:100930005040465072C8162E8207F11CD40C2C4D24
:10094000621CA89AC2968B6A1C78C0ADCC6ED4216A
:1009500006E523C0069691A7EBC284ABEAAA31D183
:100960009EFD8FE6CEF8EAB9D6609220B54C268E71
:10097000D3DE2D02A2399880C3E031F7F4D09ECFA8
:100980005E6D12C766E5E2FA4ADE5EFC13231E16B0
:100990004A97F76B7977F3718DA512344477979363
:1009A00093BBCB18FE47A360B17BA2C5EBF1C9DDB9
:1009B000352E5C7DF874F5B37CFF79F50B6A724CCB
:1009C000FF4E46B757F740957485DA26F16C3E0620
:1009D000C2BBAFB77C5A8C35D7E7D5D5EAE61F2B1B
:1009E000F9F5E6E3F5A7AFE8CB317E5CAF3EC34750
:1009F0009642353AC9F1AC159CB5C2B360F5E6E252
:100A000083BCBCB8BF46367CD4FACBC597B55CDF97
:100A1000DFAE7F8195F50A57E6F8797527AF571F46
:100A20002EFE353A7F1BBD6282EEA166A0AA935AC4
:100A3000355346E390EE34061AC038CEEF2EC6A3E7
:100A4000F37F8F4F96FF01B12F71BCE4F1158E013A
:100A50002F34B9C609340D3459E1049A329ABCC70F
:100A6000C9D4ECFF892686C1DF7032330CFE8E9329
:100A700085D9F3331D63F67CA009EE7965E73282F0
:100A800092655050AC2F3482AB81224BEACC985304
:100A900090D9379C54D8592E7244EF8BB00548C674
:100AA00055C455528AB2EA04C058602810109538CF
:100AB000140942A378DA691833AA5A51835FC049EE
:100AC000DCC8DABD7D8BC4A0D4486CAA468081FF07
:100AD0006AE7BAC5D58CBED3275395C0D63F7518E3
:100AE000C1A192DE824050B2261D522746CC24ED91
:100AF000F4A3623736C42D922298D9AFF82B057B28
:100B0000620D92AA52D8D2DAED07385D71632EEAEF
:100B1000A4013009D5345543F1DD2E340A724EDB81
:100B200051F7FD3E81FB66A2AB04C500ECB7C8756A
:100B3000B9FEBE29C18B74266CFFEADB694E4C5CA2
:100B4000655B2AF32240EDACFF0664284A5228C8B0
:100B50006ADC9BD8C5A27A54561A819D19D794761F
:100B6000D9F571AE73E382F760DDD442EE7CEC3DE3
:100B70002C112850604FC01D95FD8A0D978D085887
:100B80007404DF31C4F5B517B9E5F8672906854562
:100B9000BAD3B5E18E2F02B7C933C27069F5C5C5A6
:100BA000DE2DB4A8C9560928DB2189587BE0826E66
:100BB000112C2D5441599F63DB009B31970A13CEB2
:100BC00008D7EA51A1A2F1A9E2F737EC9226232C2B
:100BD0001B6A8C9FB7A85DAA2E048C9A4D5E3D714E
:100BE000D3F911409C08BE0E7A0FB93FD6E0E1025E
:100BF000C09A1730D1850BBAAC398B7362A5A51298
:100C000025F59F630A7B0EDC75536D419905889E1F
:100C1000E0DD36902E414A50B642BFC422E8B332DE
:100C200097422CA2E3C031A86A300302152BDFB52E
:100C30002338D08E78D2790E5924057E833E9B8B43
:100C400025BFD369E83B3BF089690D4EC6362401C8
:100C50009042177D61BF59EC832ED7B62FA796011E
:100C600098915B5288712F4AC8D0F86957556293A2
:100C7000D0EDF866F8FAF22584D4917076B6478202
:100C80005A055EF4C0C0D5DD17521932871CDB2A25
:100C90006A4EEFCBB6AF31CF2A766B8AA5D8437EAA
:100CA0004DBA7497555B56F40FDC2AD00B1ED4E373
:100CB0007DF9008C312670EB1A7C6FFD827FA0E1FC
:100CC00080549539C4B047584EBEE53634B9FB73ED
:100CD0003F244CD9C065E35E03762E3E41708454B8
:100CE000F50D33FD067BF0F6076ED5E849D1C54911
:100CF000F3D09871BFD2621B55420460CCA4B04CB3
:100D00008872950D850E524C9E34A84CAC988FD4A9
:100D10000C683086373E969870CACE830529A49E0B
:100D2000834706CC3D90D827D1723683EC74622776
:100D300073EAE078329F91F561329F2F603C797DB4
:100D4000A582BD86E0A0F8E5949BB341D9D7624463
:100D50002C53B5D7D12DD11C863CA8D76018F9D219
:100D60000A66B19FE53A78F9046621676038F30CAA
:100D700007F51A4D02A634F76C612758D0758983A0
:100D8000AE9FC2913CD6EB2C23FF743BD891042D2F
:100D9000A0A015735F7C41A28EC61FBC70CF31909E
:100DA0003DCD7B01D5A0F4AE400925B82E90581456
:100DB000728F434F4AD4587E4F68C3C00C826B9FDA
:100DC00045FE2DA705E7734F338B857F091930DE6C
:100DD00055D05D6E0F8F081F5A607BF0B4202D3CFC
:100DE0007CC1CB73A394A97F3D0848DD3302C3E5E2
:100DF000144901928102C47EEDC45659846F0AE6FB
:100E00005616057D9AD2EB2A3EE500191C153E6C5C
:100E10002DB025F1D1CF43E5D829D1B059FAA34B54
:100E2000C654EA351DD55EF3332EFC5A6F98B62FA3
:100E3000CC4FFB2B1B20F6EDCF5E6FC46F235040D1
:100E40002E967B5E3CBCEE51E0F61C65F96F1513E7
:100E5000DF301DCA8FAD12C97E16F6401E0969E249
:100E60001AB2A3CF6901C897D4D75091B7D3DB1D6D
:100E700021D17BC0044288F9030E74098FE3D3B3F8
:100E8000D3E8ED3C5ABCDD6EE2691C8DC7B3D1EBF3
:100E9000FF00BB8BAA83BC09000028292A2B2C2D1C
:100EA0002E2F5051525354555657200023002600E0
:100EB00029002C002F003200000100000301060170
:100EC00009010F47004400450080013548004400F7
:100ED000450020010D88008000810080000E8A00FE
:100EE0008000810020000F8C008000810008000C31
:100EF000B300B000B10080033EB400B000B10020E8
:100F000003239800900091008000249A00900091A3
:100F1000002000259C009000910008003BA800A044
:100F200000A10080003CAA00A000A10020003DAC70
:100F300000A000A10008005B280120012101800021
:100F40005C2A012001210120005D2C0120012101EA
:100F5000080004000000040404040704020704005D
:100F6000000400000202040000040407040002045C
:100F70000404000404000404010704000204000047
:100F80000000000000060002025B1704520F5A0A1C
:100F900002560F5940026A0F584003580F5740033A
:100FA0005B0F5612035E0F551805610F5440026A1D
:100FB0000F531404660F5240026A0F5110036C0F56
:100FC0005011046F0F4F1104730F4E0D02770F4D28
:100FD0000B017E0F4C4001790F4B12047A0F4A0B24
:100FE000017E0F4910027F0F481503810F00400258
:100FF000840F470E02860F460901880F4506000040
:10100000000011241FBECFEFD1E2DEBFCDBF00E054
:101010000CBF14BE0FB6F894A8958091600088614B
:1010200080936000109260000FBE12E0A0E0B2E07A
:10103000E8EDF3E600E00BBF02C007900D92A4328A
:10104000B107D9F723E0A4E2B2E001C01D92A239B2
:10105000B207E1F70E94B9260C94EA310C94000023
:10106000CF93DF93CDB7DEB765970FB6F894DEBFA9
:101070000FBECDBF0E94A6266B017C0180916E023F
:10108000882309F419C40E94A626C61AD70AE80ABA
:10109000F90AF89480916E02882351F08FEF8093C3
:1010A0006E0278940000F89480916E028111F9CF5D
:1010B00078940E94A626A7019601260F371F481F85
:1010C000591F288B398B4A8B5B8B81E080936E0292
:1010D00080913202882309F440C0109232028FEFCF
:1010E00089838E010F5F1F4F68ED75E1C8010E9473
:1010F00002187C01892B89F1D70156968C9182FFC9
:10110000F3CF0E94A626F894F70137892689422F4B
:101110004B7F468B78949F938F937F936F931F920F
:101120003F9321701F922F9389811F928F9320EC00
:101130003FE03F932F930E94E12B8DB79EB70C9613
:101140000FB6F8949EBF0FBE8DBF68ED75E1C80164
:101150000E9402187C01892B79F680913302882342
:1011600011F1109233028FEF89838E010F5F1F4FB1
:1011700066E672E1C8010E940218FC01892B99F011
:10118000958D868D9813F4CFF894858D968D89175B
:1011900009F4E6C3789466E672E1C8010E94021879
:1011A000FC01892B69F780913102882309F454C02E
:1011B000109231028FEF8B876FE0B62E66E37EE0F0
:1011C000CE010B960E9402181C01892B09F444C021
:1011D000D10157968C91579780FFF0CFF894F10189
:1011E000448055806680778087898E7F878B78944E
:1011F00056968C91813009F40BC308F4E3C2823017
:1012000009F4A0C28330D1F6AB8419861A869E01F8
:10121000275F3F4F42E061E0F101848995890E9498
:10122000FC1289849A84982489249824740100E00B
:1012300010E0B101605F7F4FC12CA3019201C10199
:101240000C960E94990E82FEB9CF80914A028111BC
:10125000B5CF8CE10E946E3080914602882309F45C
:1012600069C0109246028FEF8D8322E0422E3DE24C
:10127000532E48E0642E69EF71E2CE0105960E947C
:1012800002188C01892B09F455C0D80152968C9113
:1012900082FFF1CF80FF49C0BD80C8010E94E92DC7
:1012A000F801428A59826A820E94A626A62E972EAB
:1012B000882E792E9E012F5F3F4F42E060E0D801DB
:1012C0001C968D919C911D970E94FC12F8940E948F
:1012D000A6266B017C01F80180859185A285B385E6
:1012E0008C0D9D1DAE1DBF1D84839583A683B78382
:1012F000C8010E941F2E7894FF92EF92DF92CF9246
:101300007F928F929F92AF921F92BF9222EA3FE00C
:101310003F932F930E94E12B8DB79EB70C960FB68B
:10132000F8949EBF0FBE8DBFA6CF6D81C8010E94ED
:101330006123A1CF80914402882301F110924402DD
:101340008FEF89838E010F5F1F4F60E07DE1C80141
:101350000E940218009791F0DC0158962C912F3FC3
:10136000A1F7F894FC012685211186C2789460E0EB
:101370007DE1C8010E940218009771F78091450233
:10138000882309F440C0109245028FEF89838E01B3
:101390000F5F1F4F93E9E92E9FE0F92E60E470E2A2
:1013A000C8010E940218009771F1DC011E962C9171
:1013B0001E9723FFF3CFF894FC012685277F26870D
:1013C00078949C01265E3F4F3F932F9350968C91CB
:1013D0008695869586951F928F9389811F928F930C
:1013E000FF92EF920E94E12BEDB7FEB738960FB651
:1013F000F894FEBF0FBEEDBF60E470E2C8010E942A
:101400000218009791F680914702882309F44BC097
:10141000109247028FEF89838E010F5F1F4F89E87B
:10142000E82E8FE0F82E6FE475E2C8010E940218E2
:10143000FC01892BC1F1848D80FFF5CFF894948154
:10144000258136814781548965897689A789B08D40
:10145000D18CC28CB38C848D8E7F848F7894BF9214
:10146000CF92DF92BF93AF937F936F935F934F932E
:101470003F932F939F9389811F928F93FF92EF92B7
:101480000E94E12B2DB73EB7205F3F4F0FB6F89477
:101490003EBF0FBE2DBF6FE475E2C8010E94021867
:1014A000FC01892B41F6A89580916D02882329F0D3
:1014B00080E48093600010926D0210912F0311233D
:1014C00009F46DC00091240200FD12C0153008F42B
:1014D00066C0D0906F02FD2C8BEF8D0D8C3308F41D
:1014E00012C2EEE7FE1609F45DC201600093240209
:1014F000412F50E06EE770E08FE692E00E94BB3132
:10150000009739F00E7F009324028F56924011E02D
:10151000180F01FD0CC0902F92609093240285ED6E
:1015200094E09F938F930E94E12B0F900F90D12E08
:10153000CC24CA9480E00D2D10E018C090E04E2D10
:1015400050E0481B590BB801680F791F61597D4F56
:1015500081599D4F0E94D13110926E028E2D9FB7FE
:10156000F89420912F03F21661F09FBFF0902F03A3
:10157000EF2CED1819F79FB7F89420912F03F21272
:10158000F4CFE0922F039FBFF1E0CF1208C085EDAA
:1015900094E09F938F930E94E12B0F900F900E94F5
:1015A000A6266B017C01288939894A895B89621BDF
:1015B000730B840B950B80902D0290902E02A090BF
:1015C0002F02B09030023FEF831A930AA30AB30AA6
:1015D00080922D0290922E02A0922F02B0923002A1
:1015E0004090290250902A0260902B0270902C02A9
:1015F000460E571E681E791E4092290250922A02FA
:1016000060922B0270922C026115710541E08407F3
:10161000910508F056C19B01AC010E943A31DC01F2
:10162000CB0181509F4FAF4FBF4F892F9A2FAB2FC8
:10163000BB274091250250912602609127027091AC
:101640002802840F951FA61FB71F84179507A607AA
:10165000B70718F48FEF9FEFDC018093250290937A
:101660002602A0932702B09328024091690250916C
:101670006A0260916B0270916C025C546B437B4F09
:101680002F2DC416D506E606270B27FDF7CCBF93F2
:10169000AF939F938F937F926F925F924F92BF927F
:1016A000AF929F928F9288EE9FE09F938F930E94BC
:1016B000E12B8DB79EB70E960FB6F8949EBF0FBE66
:1016C0008DBF8091690290916A02A0916B02B091E6
:1016D0006C02C816D906EA06FB0698F480916502EA
:1016E00090916602A0916702B09168020196A11DD7
:1016F000B11D8093650290936602A0936702B09338
:101700006802C0926902D0926A02E0926B02F09283
:101710006C0210922502109226021092270210925B
:1017200028021092290210922A0210922B02109283
:101730002C0210922D0210922E0210922F02109263
:1017400030029CCCAB8481E089831A821B821C828C
:101750009E012F5F3F4F43E061E0848995890E949D
:10176000FC1269817A818B819C810E944A31272FEA
:10177000382F492F55272C873D874E875F8737E0C5
:1017800039831A829E012F5F3F4F42E061E0D10111
:1017900054968D919C9155970E94FC12EC84FD8487
:1017A0000E851F8500271127B101605F7F4FCA801A
:1017B000A3019201C1010C960E94990EBC85B0FF55
:1017C000FDCC43CDAB841D821E821F8218869E01F4
:1017D0002B5F3F4F44E061E0F101848995890E94CD
:1017E000FC126D817E818F8198850E944A31D62EB0
:1017F000F72EB101605F7F4FC12CED2C8C01A3014E
:101800009201C1010C960E94990ED2FED7CC1DCD3B
:10181000AB84FCE0F9831A821B821C829E012F5F3D
:101820003F4F44E061E0D10154968D919C915597D2
:101830000E94FC1269817A818B819C810E944A31CD
:101840006B017C01B9821A829E012F5F3F4F42E0FB
:1018500061E0F101848995890E94FC12870176017B
:101860001127B101605F7F4FCA80A3019201C101BE
:101870000C960E94990EA2CC318D308F7894AC01D9
:10188000415F5F4F5F934F931F922F93FC018789B6
:101890001F928F9389811F928F9328E93FE03F9396
:1018A0002F930E94E12B8DB79EB70A960FB6F8943E
:1018B0009EBF0FBE8DBF49CDC88AD98AEA8AFB8AEE
:1018C00004CC6115710550E18507910508F0C2CE81
:1018D0008B019C0101501F4F2F4F3F4F5527432F26
:1018E000322F212F0E943A31DC01CB014091250299
:1018F000509126026091270270912802840F951F53
:10190000A61FB71FA2CEE09070028E2D807F80317F
:1019100009F0E7CD1D1508F442CE8D2D90E0FC01B5
:10192000E259FD4F20812E3709F0DBCDAC0144593F
:101930005D4F1A01FC01E359FD4F9081DA018C9152
:10194000292F30E05901B82A6DEF6D0D8FE692E036
:101950000E94BC26A816B90639F1F0906F02C1CDDD
:101960005489658990892189328943898F5F858F60
:1019700078946F935F934F933F932F939F938981B5
:101980001F928F93ABEBBFE0BF93AF930E94E12B0D
:101990002DB73EB7265F3F4F0FB6F8943EBF0FBE40
:1019A0002DBFE6CB11E0C3CD802F8D7F8093240225
:1019B00080911B02E812FEC081E08E0D8F70806165
:1019C00080931B02B1E72B16B2E03B0609F008F446
:1019D000BAC0E1E7F2E0ADB6BEB68F010F5F1F4FB0
:1019E0002081222309F4E3C0E4EDF4E08491281778
:1019F00008F0DDC030E0220F331F220F331F220F0B
:101A0000331FF901E355FD4FE4914DB75EB784E014
:101A1000E89F4019510911240FB6F8945EBF0FBE1C
:101A20004DBF8DB79EB70196F901E155FD4F449129
:101A3000F901E055FD4F65917491FB01640F711D33
:101A4000AC01BD86AC869D8B8C8B6E177F0709F42D
:101A50007FC02016310638F1A491A53038F1A730A7
:101A600011F52801BFEF4B1A5B0AD8016C90820177
:101A7000060D111D20163106B0F0862C912CA12CDC
:101A8000B12CDA018D929D92AD92BC921397612C8C
:101A9000712C14964D925D926D927C921797485FCF
:101AA0005F4F3196D2CF87E00E946E307A0194E08A
:101AB000E90EF11C5801AFEFAA1ABA0AD8011C911D
:101AC000912F9F77492E512C612C712C012F00767C
:101AD000003691F117FF3AC085010F5F1F4FD80103
:101AE00011978C91440C551C661C771C440C551C9A
:101AF000661C771C440C551C661C771C440C551C3A
:101B0000661C771C440C551C661C771C440C551C29
:101B1000661C771C440C551C661C771C982F9F77FD
:101B2000492A87FDDACFDA014D925D926D927C925F
:101B30001397A701319689CFB0EE4B2A55245A94BA
:101B4000652C762CC7CFCC24C394F4CC8501EBCF85
:101B5000AC84BD848C899D8940914A02442331F034
:101B6000F901E255FD4FE491E0FF11C02E543D4FC5
:101B7000F90125913491F90119950FB6F894BEBE7B
:101B80000FBEADBE02151305F0F6F80124CF80910B
:101B90004C021F928F93E7EFFFE0FF93EF930E94B9
:101BA000E12B0FB6F894BEBE0FBEADBEEBCF85E005
:101BB0000E946E301D2DB3CCFC0110926E0281E0AC
:101BC0008093310287898160878B4481558166814A
:101BD000778180859185A285B385840F951FA61F87
:101BE000B71F84839583A683B78381E008950F93FD
:101BF0001F93CF93DF938C0166E37EE0FC0180812D
:101C00000E940A27EC010E94E92DF8018481958148
:101C1000A681B7818C839D83AE83BF8380859185A8
:101C2000A285B38588879987AA87BB87892B8A2B4A
:101C30008B2B29F4DF91CF911F910F91089584850B
:101C40009585A685B7858C879D87AE87BF87808958
:101C50009189A289B389888B998BAA8BBB8BCE0182
:101C6000DF91CF911F910F910C941F2EFF920F9334
:101C70001F93CF93DF93EC01F88483E08F15E0F09E
:101C800048E150E066E37EE088810E94DB268C011B
:101C90008CED9DE0F8019383828362EA71E18C818F
:101CA0000E940A27F801958B848BF68ADF91CF91E9
:101CB0001F910F91FF9008958EE10E946E30CF9298
:101CC000DF92FF920F931F93CF93DF93EC0162EAB1
:101CD00071E18C810E940A276C01F8840F2D10E0BD
:101CE000A8014D5F5F4F6FE57EE088810E94DB2693
:101CF000FC01D182C082F2826C857D85A8010396A9
:101D0000DF91CF911F910F91FF90DF90CF900C94B6
:101D1000C831CF93DF93EC0162EA71E188810E94C0
:101D20000A27288539854C8160E0DF91CF910C949A
:101D3000FC124F925F926F927F928F929F92AF921E
:101D4000CF92EF92FF920F931F93CF93DF93EC010B
:101D50004B01270138011F92CF927F926F925F92C1
:101D6000EF925F934F933F932F931F92AF9281EB2C
:101D70009FE09F938F930E94E12B8DB79EB70E96A5
:101D80000FB6F8949EBF0FBE8DBF88819981AA813E
:101D9000BB81E816F9060A071B0750F0F4018081A1
:101DA0009181A281B3818E159F05A007B10720F410
:101DB00080914A02882379F0DF91CF911F910F9192
:101DC000FF90EF90CF90AF909F908F907F906F900B
:101DD0005F904F9008958DE10E946E308BE10E94DC
:101DE0006E300F931F93FC01A489B58986898C936B
:101DF00093A181E0892783A34481558166817781FE
:101E000080FF12C00085118522853385400F511F48
:101E1000621F731F82FD12C04483558366837783DC
:101E200081E01F910F9108950485158526853785DA
:101E3000400F511F621F731F82FFEECF008911896F
:101E400022893389872F401751076207830B87FD4B
:101E5000E3CF8EE898E193838283B901A80144839C
:101E600055836683778381E01F910F9108950895CC
:101E7000FC018081A481B58140855185628573858F
:101E80009FB7F894813061F0823019F04C939FBF76
:101E900008954D935D936D937C9313979FBF089521
:101EA00011965C934E939FBF0895FC0185818F939B
:101EB00084818F9380811F928F9384ED9FE09F9305
:101EC0008F930E94E12B0F900F900F900F900F9027
:101ED0000F900895DC012C911496ED91FC911597CB
:101EE0003FB7F8942130E9F02230B1F0808190E0E2
:101EF000A0E0B0E03FBFBF93AF939F938F938FEC71
:101F00009FE09F938F930E94E12B0F900F900F9073
:101F10000F900F900F90089580819181A281B381DD
:101F2000E9CF80819181A0E0B0E0E4CFCF92DF9251
:101F3000EF92FF92FC014081518162817381248183
:101F4000E6E9FEE085919591A591B491481759076E
:101F50006A077B0770F56A017B01C20ED11CE11C88
:101F6000F11C8C159D05AE05BF0500F5841B90E0A6
:101F70009A0126523B4F3F932F939F938F937F93CA
:101F80006F935F934F938DEE9FE09F938F930E948B
:101F9000E12B8DB79EB70A960FB6F8949EBF0FBE81
:101FA0008DBFFF90EF90DF90CF900895822F90E04B
:101FB000DFCF80E090E0DCCF80914A02882329F0D7
:101FC000823011F010924A02089582E00E946E3031
:101FD0008EE00E946E300F931F93CF93DF938C019E
:101FE0006AE770E1DC018C910E940A27EC010E94F3
:101FF0008627FC01D80114964D915D916D917C91DD
:102000001797428353836483758318968D919C91AF
:10201000199791878087892B09F464C0D8011C9691
:102020008D919C911D97978386831286F8948AA13F
:10203000282F217081FB992790F9291729F091E029
:102040008927928591609287982F9F7E2E853F8564
:10205000232B59F585FD19C09AA3118210828A8D10
:102060009B8D892BA9F1AC8DBD8DED93FC93FD8FDC
:10207000EC8FCE010E94D916CE010E941F2E7894BB
:10208000DF91CF911F910F9108958091420290911D
:10209000430291838083F0934302E0934202789459
:1020A000DF91CF911F910F9108959AA31182108211
:1020B0008A8D9B8D892B89F0AC8DBD8DED93FC9322
:1020C000FD8FEC8F7894DF91CF911F910F91089540
:1020D000FD8FEC8FFB8FEA8FCCCFFD8FEC8FFB8FCA
:1020E000EA8FCDCF87E10E946E30FC016481808150
:1020F0000C946D250F931F93CF93DF938C0143E2D4
:1021000050E06AE770E1FC0180810E94DB26EC016F
:10211000F80184859585A685B785892B8A2B8B2B1D
:1021200019F560E06AA3F80184810E946D25688B2F
:10213000798B8A8B60E0F80180850E946D256B8B1E
:102140007C8B8D8B80E090E0A0E0B0EC8E8B9F8B41
:10215000A88FB98F6BE070E0CE014A96DF91CF91E6
:102160001F910F910C946C2764E0DCCF8F929F92AB
:10217000AF92BF92FF920F931F93CF93DF938C0187
:1021800066E278E1FC0180810E940A27EC010E944E
:10219000E92D8F8D98A1892B09F058C0F801048191
:1021A0001BA1FF24F394002339F16C897D898E896A
:1021B0004F2D0E940F1C21E001111CC014FB882729
:1021C00080F991E08927281741F08F89988DA98D92
:1021D000BA8D892B8A2B8B2B89F410711F291BA395
:1021E000DF91CF911F910F91FF90BF90AF909F9083
:1021F0008F90089520E0E2CFF12CD7CF0E94A62641
:102200008F88988CA98CBA8CDC01CB01880D991D24
:10221000AA1DBB1D888B998BAA8BBB8B8C839D833E
:10222000AE83BF838EE898E19B838A83107114602C
:102230001F291BA3CE01DF91CF911F910F91FF901A
:10224000BF90AF909F908F900C941F2E82E10E94C0
:102250006E30CF92DF92EF92FF920F931F93CF9346
:10226000DF938C0166E278E1DC018C910E940A2701
:10227000EC010E948627FC01D8011496CD90DD90D8
:10228000ED90FC901797C282D382E482F582189673
:102290004D915D916D917C911B974683578360872B
:1022A0007187F894118210828F8D98A1892B81F00B
:1022B000A9A1BAA1ED93FC93FAA3E9A37894DF91C5
:1022C000CF911F910F91FF90EF90DF90CF900895E5
:1022D000FAA3E9A3F8A3EF8F8BA182FD25C0C88ADA
:1022E000D98AEA8AFB8A982F94609BA381FD10C04B
:1022F000CE010E94E92DCC82DD82EE82FF828EE843
:1023000098E19B838A83CE010E941F2E7894D7CFB9
:102310004C815D816E817F81872F4C155D056E0537
:102320008F0987FFE5CFF2CF488959896A897B8970
:10233000972F4C155D056E059F0997FFD0CF83E160
:102340000E946E300F931F93CF93DF938C0146E072
:1023500050E062EA71E1FC0180810E94DB26EC0121
:1023600061E0F80184810E946D256A837B838C8300
:102370008D8181608D83DF91CF911F910F910895A1
:1023800046E050E062EA71E1FC0180810C94DB26BA
:102390008F929F92AF92BF92FF920F931F93CF9312
:1023A000DF93EC0162EA71E188810E940A278C01C7
:1023B000F88483E08F1508F484C0F8018581867065
:1023C00009F07FC08C849D84AE84BF848C819D8104
:1023D000AE81BF81892B8A2B8B2B09F074C0ECEA6C
:1023E000FEE0A591B49111968C9180FD04C060E04F
:1023F00088E00E946D2560E089E00E946D2560E024
:102400008AE00E946D2560E08BE00E94D61B80E58B
:102410008CBD1DBC8114F2E19F06FAE7AF06B10442
:1024200008F041C0811489E098068DE3A806B10444
:1024300018F5E0E88E16E4E89E06EEE1AE06B1047B
:10244000C0F5F0E48F16F2E49F06FFE0AF06B1049A
:1024500068F580E2881681EA980687E0A806B1044C
:1024600058F590E0E0E98E16E0ED9E06E3E0AE065A
:10247000B10428F583E002C090E080E0CF2DCC0FBE
:10248000CC0FC065C82BF801C0839183858184601F
:102490008583DF91CF911F910F91FF90BF90AF90F7
:1024A0009F908F90089591E080E0E8CF90E081E0E8
:1024B000E5CF91E081E0E2CF91E082E0DFCF82E002
:1024C000DDCF0E94EE0E8CE20E946E30CF93DC01D5
:1024D00014969C91149720E030E0C22FF901E65643
:1024E000F14FE4919E1741F02F5F3F4F20313105AE
:1024F000A1F78BE20E946E3087E980937A00283042
:10250000E8F420917E0081E090E00C2E01C0880F5D
:102510000A94EAF7822B80937E004FE150E066E652
:1025200072E18C910E94DB26FC0189ED94E193839A
:102530008283C28F81E0858FCF91089520917D00A5
:102540003C2F377081E090E001C0880F3A95EAF7A0
:10255000822B80937D00E1CF0F931F93CF93DF9366
:102560008C0166E672E1FC0180810E940A27EC0181
:102570000E94E92D909100028A8D981303C08FEF7D
:1025800080930002F80184819581A681B781888BB0
:10259000998BAA8BBB8B8C839D83AE83BF838085F5
:1025A0009185A285B3858C879D87AE87BF878485FB
:1025B0008E8F91E0980F9D8F408951896289738930
:1025C000488759876A877B87248935893F8B2E8B7B
:1025D000208D318D398F288F948D9C8F811105C06E
:1025E000DF91CF911F910F910895CE01DF91CF918F
:1025F0001F910F910C941F2E8F929F92AF92BF92BA
:10260000CF92DF92EF92FF920F931F93CF93DF93BE
:102610004C01E62E142F6901DC0115968C9115975B
:10262000982F967009F462C081FD6DC0F40190810D
:1026300081819CBD8DBDD40115969C91159790FD0F
:1026400071C091FF7AC0D401CD91DC91AA24AA94E3
:10265000A10E1123A9F1B12CBFEFAB1ABB0AAC0C30
:10266000BD1CF601F08008E010E0898580FF7AC08B
:10267000EE81FF81888580834F2D40786B817C813E
:102680008D810E940F1CFF0CEE81FF818885808365
:10269000110FE881F98190818A81892391E009F401
:1026A00090E0192B015009F7EE2011F0D6011C9390
:1026B000BFEFCB1ADB0ACA14DB0499F6F40195814B
:1026C00090FF14C0D40112966D917D918C9141E0E0
:1026D000DF91CF911F910F91FF90EF90DF90CF90FE
:1026E000BF90AF909F908F900C940F1CDF91CF9173
:1026F0001F910F91FF90EF90DF90CF90BF90AF9020
:102700009F908F900895ED91FC9141854270668174
:10271000778180850E940F1CD40115969C91159796
:1027200090FF8FCF12966D917D918C9140E00E9429
:102730000F1CF401958191FD86CFEE2071F18FEF92
:10274000810F112309F4BCCFF60190819EBD0DB419
:1027500007FEFDCF9EB591938150B8F7D401159631
:102760009C91AECF4F2D40786B817C818D810E94F2
:102770000F1CFF0CEE81FF8188858083110FE8819B
:10278000F98190818A81892391E009F490E0192BE5
:10279000EE81FF818885808385CFF6019601210F28
:1027A000311D2E173F0709F489CF81918EBD0DB4DD
:1027B00007FEFDCFF6CFFF920F931F93CF93DF93CA
:1027C000EC01188162EA71E1812F0E940A270C81D5
:1027D000F884C9852F2D3C2F402F61E00E94FC1208
:1027E000CF93FF921F920F931F921F9386EB9FE050
:1027F0009F938F930E94E12B8DB79EB708960FB6DB
:10280000F8949EBF0FBE8DBFDF91CF911F910F91A6
:10281000FF9008951F93CF93DF93EC01162FAC899F
:10282000BD891097B9F01296ED91FC9113978D9197
:102830009C9111979D8B8C8B11961C921E921396D6
:102840001C921E921297612FCD011995AC89BD89FA
:10285000109749F710926E0281E080933202DF9167
:10286000CF911F910895FC013897968990FF08C079
:10287000608D678B9A7F9460968BCF010E940A14BB
:1028800080E00895FC0186898460868B10926E0238
:1028900081E080933202448155816681778180890D
:1028A0009189A289B389840F951FA61FB71F8483BE
:1028B0009583A683B78381E00895FC01A085B18547
:1028C0009C9182858923D1F0818D80958170C9F496
:1028D000838D815031F1838F448155816681778169
:1028E00087859089A189B289840F951FA61FB71F7C
:1028F00084839583A683B78381E00895818D817059
:1029000039F388EA94E19383828383899489A58942
:10291000B68984839583A683B783828D838F81E074
:102920000895A789B08D56969C915697892F8170EE
:1029300090FFE3CF648D57966C9357979A7F94607E
:1029400056969C935697CD010E940A1480E00895F4
:102950000F931F93FC01A085B1859C910481158183
:10296000268137814385548565857685400F511FC3
:10297000621F731F8285892361F0818D809581702C
:1029800059F0448355836683778381E01F910F91CB
:102990000895818D8170A9F7438B548B658B768B5D
:1029A0008DE594E193838283CF011F910F910C9465
:1029B0005D14FC0180917A0086FF0EC084819581B0
:1029C000A681B7818853984FAF4FBF4F84839583BB
:1029D000A683B78381E00895828D909100029817B5
:1029E00081F09F3F59F780930002982F9870909341
:1029F0007B008770806480937C0087ED80937A00F1
:102A0000DDCF8FEF80930002209178003091790024
:102A1000858D968D891780F544895589240F351F3A
:102A20008F5F358B248B858F891760F18689978915
:102A300028173907C8F1808D918D82179307A0F16F
:102A4000138E10926E0281E0809333024089518987
:102A50006289738980859185A285B385840F951FCE
:102A6000A61FB71F808B918BA28BB38B848395831A
:102A7000A683B78381E0089581E0358B248B858F11
:102A80008917A0F644815581668177818485958573
:102A9000A685B785840F951FA61FB71F84839583CE
:102AA000A683B78381E00895838D8F5F838F948D94
:102AB000891738F280914A028111C2CF8AE10E94BF
:102AC0006E30EF92FF921F93CF93DF937C01FC0156
:102AD000108168ED75E1812F0E940A27EC01F894BE
:102AE0008E8980FF09C0F70164816F8B8A7F8460C3
:102AF0008E8BCE010E940A14CE010E94E92DCE01D8
:102B000008960E94E92D1E8A8F8978941F921F9241
:102B10001F921F921F928F931F921F921F921F93BB
:102B200080EC9FE09F938F930E94E12B8DB79EB71F
:102B30000C960FB6F8949EBF0FBE8DBFDF91CF915C
:102B40001F91FF90EF900895CF93FC01C0816EE636
:102B500076E18C2F0E940A27FC01F894818D33893D
:102B60004489558966897894A085B1852C91928590
:102B7000922321E009F420E01F922F936F935F933B
:102B80004F933F93869581701F928F931F92CF939F
:102B900085EC9FE09F938F930E94E12B8DB79EB7AA
:102BA0000C960FB6F8949EBF0FBE8DBFCF910895BF
:102BB00049E150E068ED75E1FC0180810E94DB266F
:102BC00022E434E1FC013383228323E334E13387BD
:102BD00022870895EF92FF920F931F93CF93DF9375
:102BE0008C0168ED75E1FC0180810E940A27EC01EF
:102BF000F8948E8980FF13C07E01F8E0EF0EF11C7F
:102C0000C7010E94E92DF80184819581A681B781D1
:102C10008C879D87AE87BF87C7010E941F2E78943F
:102C2000DF91CF911F910F91FF90EF9008950F9337
:102C30001F93CF93DF938C016EE676E1FC018081D8
:102C40000E940A27EC010E94E92DF80184819581F8
:102C5000A681B7818C839D83AE83BF838085918558
:102C6000A285B3858F87988BA98BBA8B84858A8F31
:102C7000882361F1F80140895189628973894B8702
:102C80005C876D877E8728EA34E13B832A838B8FBC
:102C900084899589A689B789892B8A2B8B2BA1F4E6
:102CA00082E0898F68ED75E1F801808D0E940A2726
:102CB000988F8F8BF801848D8C8FCE01DF91CF910F
:102CC0001F910F910C941F2E83E0EBCF188E1F8A5B
:102CD000198EDF91CF911F910F9108950F931F933C
:102CE000CF93DF93EC014DE150E06EE676E1888111
:102CF0000E94DB268C0168858C810E94D61BF8011E
:102D0000608771878287DF91CF911F910F9108951E
:102D1000CF93DF93EC010E94E92DCE0108960E942B
:102D2000E92DEC89FD89309751F0908181811382E2
:102D3000128211821082E92FF82F3097B1F71D8A85
:102D40001C8A188E1F8A1E8ADF91CF9108950F93D7
:102D50001F93CF93DF938C0168ED75E1FC018081B7
:102D60000E940A27EC01F8940E94881681E08E8B5D
:102D7000F80184819581A681B7818C839D83AE8380
:102D8000BF8380859185A285B385888B998BAA8B1B
:102D9000BB8B892B8A2B8B2B19F0CE010E941F2E07
:102DA000F8018485888F7894DF91CF911F910F91DE
:102DB0000895CF92DF92EF92FF920F931F93CF93DC
:102DC000DF93FC01A28DB38D109761F417861686F0
:102DD00080E0DF91CF911F910F91FF90EF90DF90F6
:102DE000CF9008958D919C911197938F828F129619
:102DF0004D915D916D917C9115970481158126818E
:102E00003781040F151F261F371F04831583268360
:102E1000378316968D919C911797958784878C019F
:102E2000092E000C220B330B400F511F621F731F22
:102E30004087518762877387892B49F582A1877FF5
:102E400082A318964D915C911997578746871A96D9
:102E50008C911A9780FD1EC006891789208D318DAF
:102E600068017901C40ED51EE11CF11CC68AD78AFF
:102E7000E08EF18E809142029091430211969C93D4
:102E80008E93B0934302A093420281E0A2CF82A12D
:102E90008860D6CF60E070E006891789208D318D7B
:102EA000401B510B620B730B468B578B608F718FDE
:102EB000C389D48985898883DDCF0F931F93CF93EE
:102EC000DF938C0180913C0290913D02892B09F0A7
:102ED0004BC060913B0270E0623071052CF482E0DF
:102EE00080933B0262E070E0E0913702F09138029B
:102EF0004DB75EB741505F4F44275A959F01C0E0E0
:102F0000D0E0C901860F971F4817590730F1219665
:102F10009C01C115A4E0DA07A1F78E1B9F0B0E944C
:102F2000BE2BD0933D02C0933C0290933A02809313
:102F300039020E942227F80180819181A281B38108
:102F400080933E0290933F02A0934002B0934102CF
:102F5000DF91CF911F910F910895209711F0C90132
:102F6000DCCF80E10E946E308DE00E946E30CF9306
:102F70002091350230913602232B91F4FC01C0815F
:102F80008C2F90E0880F991F880F991F0E94BE2BED
:102F90009093360280933502C0933402CF91089506
:102FA0008AE00E946E3080913C0290913D0221E0C7
:102FB00030914A02311101C020E01F922F939F935C
:102FC0008F93209141022F93209140022F932091C3
:102FD0003F022F9320913E022F9321E0892B09F489
:102FE00020E01F922F9389ED9FE09F938F930E9483
:102FF000E12B8DB79EB70C960FB6F8949EBF0FBE0F
:103000008DBF0895CF93DF93EC01988140913402F6
:10301000A0913502B09136020BC0FD0184E0989F6B
:10302000E00DF11D1124208131812617370741F071
:103030009F5F941790F380E090E0DF91CF91089527
:10304000988382819381DF91CF910895CF92DF920F
:10305000EF92CF93DF93EC0161E088859985AA8593
:10306000BB85892B8A2B8B2B09F460E08C810E9415
:103070006D256B01E82E44E250E066E278E188813C
:103080000E94DB26FC01C48AD58AE68A21E04885B5
:1030900059856A857B85452B462B472B09F420E013
:1030A0004C855D856E857F85452B462B472BB1F47E
:1030B00030E0232BFC0123A3488959896A897B8945
:1030C000478B508F618F728F6AE070E04F96DF916F
:1030D000CF91EF90DF90CF900C946C2730E1E9CF47
:1030E000CF93DF93EC0166E278E188810E940A27A2
:1030F000F894FC01278D30A1232B69F44C815D816C
:103100006E817F81FC01438F548F658F768F789419
:10311000DF91CF91089584E10E946E308F929F924B
:10312000AF92BF92CF92DF92EF92FF921F93CF9315
:10313000DF93EC01EF8CF8A0E114F10409F4F0C086
:10314000F7018081918198A38F8F86809780A084DA
:10315000B18411E081149104A104B10409F4A1C067
:103160006C897D898E89412F0E940F1C80914202BB
:1031700090914302F70191838083F0924302E092A1
:10318000420281149104A104B104E9F08B8D9C8D5D
:10319000AD8DBE8D88169906AA06BB06A0F44F8990
:1031A000588D698D7A8D411551056105710509F4B8
:1031B0005BC08C819D81AE81BF81480F591F6A1F02
:1031C0007B1F166022C08BA131E081149104A10401
:1031D000B10409F068C084FB992790F921E0922797
:1031E000391709F443C04F89588D698D7A8D41157F
:1031F000510561057105D1F18C819D81AE81BF8141
:10320000480F591F6A1F7B1F1460EF8DF8A130977C
:1032100009F077C02BA1488B598B6A8B7B8B20716F
:10322000212B2BA311FF5FC0880D991DAA1DBB1D6B
:1032300012FD52C021EF3EE03B832A838C839D83A5
:10324000AE83BF8388869986AA86BB868B8D9C8D2C
:10325000AD8DBE8D88199909AA09BB098C879D87F8
:10326000AE87BF8781E011C012608BA1EF8DF8A1FE
:103270003097D9F4188A198A1A8A1B8A8071812B8F
:103280008BA3812F827011FD34C0DF91CF911F91EC
:10329000FF90EF90DF90CF90BF90AF909F908F9076
:1032A000089510E05DCF30E096CF42815381648174
:1032B0007581488B598B6A8B7B8B8071912F9460C1
:1032C000892B8BA311FF0FC08C819D81AE81BF81A3
:1032D000880D991DAA1DBB1D2B2F84179507A607C6
:1032E000270B27FDA7CF4C835D836E837F8381E00F
:1032F000CCCF40E050E0BA018C819D81AE81BF818E
:1033000093CFC280D380E480F580872F4C155D0574
:103310006E058F0987FD07C08BA1B701A601C9CF34
:1033200085E10E946E3083E10E946E3081E20E944E
:103330006E300F931F93CF93DF93FC01A189B28965
:103340008D919C911197928B818B16968D919C916A
:103350001797C085D185228521113FC02FB7F894DA
:10336000AC015527598348832FBF209142023091E9
:10337000430211963C932E93B0934302A0934202D2
:10338000A189B289109759F527853089821793074B
:1033900041F083859485A585B6850097A105B10583
:1033A00031F480E0DF91CF911F910F910895448116
:1033B000558166817781840F951FA61FB71F84836F
:1033C0009583A683B78386E999E19383828381E01D
:1033D000DF91CF911F910F9108958883C6CF1296E8
:1033E0004D915D916D917C9115972785308982175C
:1033F000930741F083859485A585B6850097A1053F
:10340000B10551F4448355836683778381E0DF916E
:10341000CF911F910F9108950481158126813781E5
:10342000800F911FA21FB31F2B2F84179507A6078C
:10343000270B27FFE7CF80E20E946E30EF92FF92CA
:103440000F931F93CF93DF937C0168E97AE1DC014E
:103450008C910E940A278C010E948627EC01F701BB
:1034600084819581A681B7818A839B83AC83BD8348
:10347000808591859F838E83F89419821882D80164
:1034800051968D919C915297892BB9F15396ED915C
:10349000FC915497D183C0835496DC93CE93539779
:1034A00080E090E07894892B39F4DF91CF911F91DF
:1034B0000F91FF90EF900895C8010E94E92DD80167
:1034C00012968D919C91139786599941F1F08A81BA
:1034D0009B81AC81BD8129E939E1F80133832283E5
:1034E00084839583A683B783C801DF91CF911F9111
:1034F0000F91FF90EF900C941F2EF801D48BC38B8B
:10350000D28BC18B81E090E0CDCF8A819B81AC8151
:10351000BD81F8014481558166817781272F481745
:1035200059076A072B0B27FFD6CF80E20E946E3027
:10353000CF92DF92EF92CF93DF93EC0148855985CC
:103540006A857B852C858C810E949A276B01E82EE9
:1035500045E150E068E97AE188810E94DB26FC01C0
:10356000C086D186E28688899989908B87878C89E5
:103570009D89AE89BF8983879487A587B68789E9A6
:1035800099E19383828368E070E0CF014196DF91F7
:10359000CF91EF90DF90CF900C946C27CF92DF9279
:1035A000EF92FF926B017C0109C00E94A626292F91
:1035B0006C157D058E052F0927FF09C08091BC0081
:1035C00087FFF3CFFF90EF90DF90CF9008958EE2CA
:1035D0000E946E3024EA2093BC000E94CE1A809193
:1035E000B90090E0A0E0B0E080319105A105B105FF
:1035F00021F00897A105B10509F408958DE20E9414
:103600006E307F928F929F92AF92BF92CF92DF9255
:10361000EF92FF920F931F93CF93DF93782EC62FD5
:10362000942EB52E822E0E94A6266B017C0120E8E6
:10363000C20E28E3D21E21E0E21EF11CC701B60132
:103640000E94EA1A7092BB0084E88093BC00C70114
:10365000B6010E94CE1AAA24AA94AC0ECC23B1F0D3
:10366000C92DDB2DB12C8FEFA81AB80AAC0EBD1EE8
:1036700094E8992E89918093BB009092BC00C70179
:10368000B6010E94CE1AAC16BD06A1F7C701B6015D
:103690000E94EA1A872D81608093BB0084E88093A2
:1036A000BC00C701B6010E94CE1ADFEFD80D8820FA
:1036B00009F15801CD2F84EC982ECC2369F090921B
:1036C000BC00C701B6010E94CE1A8091BB00F50173
:1036D00081935F01C15099F7F801ED0FF11DEF01E2
:1036E00084E88093BC00C701B6010E94CE1A809185
:1036F000BB00888384E98093BC00DF91CF911F9148
:103700000F91FF90EF90DF90CF90BF90AF909F9080
:103710008F907F900895BF92CF92DF92EF92FF92A9
:103720000F931F93CF93DF93D82FC62FB42E152F4F
:103730000E94A6266B017C0120E8C20E28E3D21E5F
:1037400021E0E21EF11CC701B6010E94EA1AD093E3
:10375000BB0084E88093BC00C701B6010E94CE1A6A
:103760000FEF0C0FCC23A9F0CB2DD12F10E00F5F62
:103770001F4F0C0F1D1F84E8B82E89918093BB004A
:10378000B092BC00C701B6010E94CE1AC017D10783
:10379000A1F784E98093BC00DF91CF911F910F9135
:1037A000FF90EF90DF90CF90BF9008958036A0F506
:1037B00067FD32C0E82FE695E695E695F0E0EE0F5E
:1037C000FF1FE655F14FA591B491109729F187702D
:1037D00021E030E0A90102C0440F551F8A95E2F7AD
:1037E000CA014FB7F89412963C911297662381F064
:1037F000382B282F209512963C93129711963C91C6
:103800001197232311962C9311974FBFBD01089553
:10381000282F20953223EFCF89E20E946E30FB01E2
:103820002FB7F8949281411105C080958923828336
:103830002FBF0895892B82832FBF0895CF93DF93E5
:10384000EC016A8D662309F453C0FC0150E031E0BD
:1038500020E0A38DB48D4C91958D942309F0532BCA
:103860002F5F330F33962613F4CF2C85922F952795
:1038700029F08D85852780959823D9F4888D5D87DB
:1038800087FD03C0815070F1888F4C815D816E810E
:103890007F8188859985AA85BB85840F951FA61F82
:1038A000B71F8C839D83AE83BF8381E0DF91CF916F
:1038B0000895982F909529238523822B8C879E85A8
:1038C0009830E0F621E0290F2E87FE01E90FF11D67
:1038D000878710926E0281E0809344028FEF888F79
:1038E0005D87D3CF10926E0291E090934402CCCFCB
:1038F00050E0BBCFAF92BF92DF92EF92FF920F9357
:103900001F93CF93DF93FC01A485B58596854785EA
:103910005089E18822893389F488A588B688778917
:10392000008D118DD28C808586279C9384FD20C0CC
:1039300085FD22C086FD24C087FD26C09C93862F6E
:103940008295807F808768279C9364FD2AC065FDEF
:1039500025C066FD1CC067FD1EC09C93DF91CF9102
:103960001F910F91FF90EF90DF90BF90AF9008955F
:10397000EA01E88285FFDECFE901F88286FFDCCF2D
:10398000E501788387FFDACFE801D882D7CFF50148
:10399000708367FFE2CFE801D882DFCFE901F882C8
:1039A000D8CFFA01E082D3CF0F931F93CF93DF9349
:1039B0008C0160E07DE1DC018C910E940A27FC0112
:1039C000D80114969C91828D9817B8F4292F30E075
:1039D000E901CC0FDD1F2C0F3D1FEF01C20FD31FDC
:1039E000F801648580850E94D61B6B8F7C8F8D8F3C
:1039F000DF91CF911F910F91089583E20E946E3065
:103A0000CF93FC01C481C930B8F44C2F50E09A0127
:103A1000220F331F420F531F455E5F4F60E07DE171
:103A2000FC0180810E94DB26FC01C28F2EE13CE17B
:103A300033832283CF91089584E20E946E305F9297
:103A40006F927F928F929F92AF92BF92CF92DF92AE
:103A5000EF92FF920F931F93CF93DF938C01FC01A2
:103A6000C080D180E280F38084809580A680B7807A
:103A700066246A94660E662301F1EA01712CFFEF59
:103A80006F1A7F0A640E751E59900E94A626DC01EB
:103A9000CB018C199D09AE09BF0988159905AA05A6
:103AA000BB0598F3652DC8010E947A1C0E94A626CA
:103AB0006B017C01C615D70539F7F801C082D182A8
:103AC000E282F382DF91CF911F910F91FF90EF90EF
:103AD000DF90CF90BF90AF909F908F907F906F902E
:103AE0005F9008950F931F93CF93DF93EC016AEAE1
:103AF0007DE188810E940A278C01FC016185728525
:103B0000838541E00E940F1C488559856C81C8015E
:103B1000DF91CF911F910F910C941F1D0F931F9355
:103B2000CF93DF93EC016AEA7DE188810E940A2746
:103B30008C01FC0161857285838540E00E940F1C29
:103B4000488559856C81C801DF91CF911F910F91F4
:103B50000C941F1DCF92DF92EF92FF920F931F9351
:103B6000CF93DF93EC014BE150E06AEA7DE188817D
:103B70000E94DB268C0160E08C810E946D25F8019B
:103B800061877287838760E088850E946D25F801D0
:103B900064877587868760E08C850E946D25F801B3
:103BA0006787708B818B60E088890E946D25F801A2
:103BB000628B738B848B60E08C890E946D25F80189
:103BC000658B768B878B60E0888D0E946D25F80170
:103BD000608F718F828FF8940E94A6266B017C0102
:103BE00060E0C8010E947A1C0E94A6267894DC013D
:103BF000CB018C199D09AE09BF09CC8CDD8CEE8CF4
:103C0000FF8C8C159D05AE05BF0548F4C81AD90A6E
:103C1000EA0AFB0AF801C482D582E682F782DF91C4
:103C2000CF911F910F91FF90EF90DF90CF9008956B
:103C30004F925F926F927F928F929F92AF92BF92BC
:103C4000CF92DF92EF92FF920F931F93CF93DF9368
:103C50008C01562E3A01FC0180809180A280B380B5
:103C6000C480D580E680F780EA012196FA01408081
:103C7000642D607F0E948E220E94A626DC01CB016B
:103C800088199909AA09BB098C159D05AE05BF05C0
:103C900098F3642D6295607FC8010E948E220E9475
:103CA000A6266B017C01F80180849184A284B384F0
:103CB000F1E05F1639F15A945A94852D90E00296FE
:103CC000680E791E5990652D607FC8010E948E2272
:103CD0000E94A626DC01CB018C199D09AE09BF0903
:103CE00088159905AA05BB0598F3652D6295607F37
:103CF000C8010E948E220E94A6266B017C01C61577
:103D0000D70501F7F801C082D182E282F382DF9108
:103D1000CF911F910F91FF90EF90DF90CF90BF90C8
:103D2000AF909F908F907F906F905F904F9008958D
:103D3000CF92DF92EF92FF92CF93DF93FC01A085A9
:103D4000B18582858C93968581E089278687C82FE7
:103D5000C170C688D788E08CF18C97859F5FD18928
:103D60009D1708F05FC0892F869586958695DF019F
:103D7000A80FB11D5A962C9130E0892F877002C090
:103D8000359527958A95E2F72170B701A601C217EC
:103D9000A9F033C0892F869586958695DF01A80FF7
:103DA000B11D5A962C9130E0892F877002C035954D
:103DB00027958A95E2F72170C2131FC04C0D5D1D37
:103DC0006E1D7F1D9F5F9D1728F383E991E293830A
:103DD000828384819581A681B781480F591F6A1F0C
:103DE0007B1F448355836683778381E0DF91CF9186
:103DF000FF90EF90DF90CF90089597878481958111
:103E0000A681B781480F591F6A1F7B1F44835583C2
:103E10006683778381E0DF91CF91FF90EF90DF9011
:103E2000CF900895B701A601D0CFCF92DF92EF9245
:103E3000FF920F931F93CF93DF93EC01E885F985F1
:103E40008A8580830E94A6263E8521E023272E872F
:103E50002F852F5F2F87213009F45CC02530E0F4D7
:103E60000C811D812E813F814A895B896C897D8906
:103E7000DB01CA01800F911FA21FB31F8C839D839A
:103E8000AE83BF8381E0DF91CF911F910F91FF90AF
:103E9000EF90DF90CF900895CC80DD80EE80FF80A2
:103EA000AB01BC014C195D096E097F098E899F89A0
:103EB000A88DB98D481B590B6A0B7B0BDB01CA011E
:103EC0000296A11DB11DB7FD34C0B595A795979574
:103ED0008795B595A795979587950A891B892C890C
:103EE0003D89800F911FA21FB31F8E8B9F8BA88FC0
:103EF000B98F28E93EE13B832A834C0D5D1D6E1D81
:103F00007F1D840F951FA61FB71F8C839D83AE83D3
:103F1000BF83B8CF0C811D812E813F81AB01BC01D5
:103F2000401B510B620B730B4E8B5F8B688F798F2D
:103F30009BCFDB01CA010596A11DB11DC6CFEF9233
:103F4000FF920F931F93CF93DF937C0160E470E2A5
:103F5000FC0180810E940A27EC011E8511FF07C029
:103F6000DF91CF911F910F91FF90EF900895F7018E
:103F7000048160857185F4840B3008F045C0FAE057
:103F8000FF1508F441C0402F50E04A960E94C83106
:103F90001F86117312601E87802F880F880F880F6D
:103FA000898BFF0CFF0CFF0CF88A002349F08A8DE7
:103FB0008F738A3229F485E19FE19B838A830CC049
:103FC0008A899B89AC89BD898E8B9F8BA88FB98F7D
:103FD00088E99EE19B838A83F8940E94A626DC01EF
:103FE000CB018058934FAF4FBF4F8C839D83AE83DF
:103FF000BF83CE010E941F2E7894DF91CF911F9135
:104000000F91FF90EF90089585E20E946E300F931C
:104010001F93CF93DF938C0160E07DE1DC018C91F5
:104020000E940A27EC01D8011496EC918F898E0F1B
:104030008F8BF8948E85E817D0F48E1BF0E03F96B6
:10404000EC0FFD1FDE011F962FEF280F30E0205FE1
:104050003F4F2C0F3D1F91919D93A217B307D9F7A6
:104060008E877894DF91CF911F910F9108951E86CE
:104070008EEF888F7894DF91CF911F910F910895E3
:104080007F928F929F92AF92BF92CF92DF92EF92E8
:10409000FF920F931F93CF93DF93EC0144E250E024
:1040A00060E470E288810E94DB268C0178848C8039
:1040B0009D80AE80BF80CC84DD84EE84FF8461E08F
:1040C000711001C060E0882D0E94D61BF801638743
:1040D0007487858761E08C2D0E946D25F8016087CB
:1040E0007187828788899989AA89BB89828B938BFA
:1040F000A48BB58B711018C091E08C149D04AE0494
:10410000BF04C1F080E0892BF8018687DF91CF9151
:104110001F910F91FF90EF90DF90CF90BF90AF90E5
:104120009F908F907F90089591E18C149D04AE0430
:10413000BF0441F780E2E7CF0F931F93CF93DF9344
:104140008C0160E07DE1FC0180810E940A27EC0186
:104150000E94E92DF80184819581A681B7818C8325
:104160009D83AE83BF834085518562857385488773
:1041700059876A877B8780898D878C871E861F8AEF
:104180008EEF888F8485898F87FD10C0452B462B45
:10419000472B29F4DF91CF911F910F910895CE0104
:1041A000DF91CF911F910F910C941F2E82E20E94FC
:1041B0006E30CF93DF93EC018E8585FD0DC0688551
:1041C00079858A8541E00E940F1C8E85807381600D
:1041D0008E87DF91CF910895E885F9858A852FB77D
:1041E000F8949281982B92839181892B81832FBFA0
:1041F0008E85807381608E87DF91CF910895CF93F4
:10420000DF93FC01A385B4855C918785982F977017
:1042100021E030E001C0220F9A95EAF7982F969599
:1042200096959695DF01A90FB11D5A969C915A97C4
:1042300045854523E1F0292B5A962C938F5F908971
:104240008917E8F48787448155816681778186895B
:104250009789A08DB18D840F951FA61FB71F8483EA
:104260009583A683B78381E0DF91CF910895209550
:1042700029235A962C938F5F9089891718F3EF01A1
:10428000CF010E94D9208E8588608E8710926E02A1
:1042900081E08093450280E0DF91CF910895CF9334
:1042A000DF93FC01A385B4859C9185858923E9F082
:1042B000868584608687878591E0980F978780340C
:1042C00008F5448155816681778186899789A08D1B
:1042D000B18D840F951FA61FB71F84839583A68376
:1042E000B78381E0DF91CF910895868582FFE3CF88
:1042F00017868FEF90E293838283CF01DF91CF9176
:104300000C94FF20EF01108ACF010E94D9208E85E6
:1043100088608E8710926E0281E08093450280E073
:10432000DF91CF9108950F931F93CF93FC01C08924
:10433000CC23E9F1868585FD23C017868FE491E2C1
:104340009383828386899789A08DB18D880F991F69
:10435000AA1FBB1F880F991FAA1FBB1F448155812D
:1043600066817781840F951FA61FB71F848395836D
:10437000A683B783C1E08C2FCF911F910F91089531
:10438000A385B48595852FB7F89484FF21C0129634
:104390008C911297892B909512968C931297119667
:1043A0008C911197982311969C932FBFC6CF8C01A7
:1043B0000E94D920F80186858860868710926E0257
:1043C00081E0809345028C2FCF911F910F9108952A
:1043D00012968C91129790958923DECFFC019289D9
:1043E0009460928B10926E0281E08093460280E08E
:1043F00008950F931F93CF93DF938C0144E450E013
:1044000069EF71E2FC0180810E94DB26EC018EEEF7
:1044100091E29B838A8362EA71E1F80184810E94C0
:104420000A279D878C87DF91CF911F910F91089567
:10443000CF93DF93EC0144969F938F938B891F92C8
:104440008F938F858F938E858F931F926F938DE9B6
:104450009FE09F938F930E94E12B1B8A8E859F85FF
:1044600001969F878E878DB79EB70A960FB6F894F0
:104470009EBF0FBE8DBFDF91CF910895FC01448197
:10448000558166817781208580810C949A27DF92FF
:10449000EF92FF920F931F93CF93DF93EC01D88895
:1044A00083E08D15B0F162EA71E188810E940A27EC
:1044B0007C018AE090E00E94BE2B8C0161E08C813F
:1044C0000E94D61BF80160837183828360E0888537
:1044D0000E946D25F80163837483858360E08C8579
:1044E0000E946D25F801668377838087D186F70166
:1044F0008581982F967081F4F70111830083826083
:104500008583DF91CF911F910F91FF90EF90DF9006
:1045100008958BE10E946E300E94EE0ECF93DF93E0
:10452000DC011C96ED91FC911D971E969C911E97A7
:104530001F96CD91DC91509751962C9188E005C043
:104540009083660F9083815049F067FFF9CF2883ED
:1045500060959083660F90838150B9F7DF91CF917A
:1045600008950F931F93CF93DF93EC0160ED72E2F8
:1045700088810E940A278C016AEF0E948E226C813A
:10458000611105C0DF91CF911F910F91089548856A
:104590005985C801DF91CF911F910F910C94181E7E
:1045A000CF92DF92EF92FF920F931F93CF93DF93FF
:1045B0008C0142E150E060ED72E2FC0180810E94DA
:1045C000DB26EC0160E0F80180850E946D256C8798
:1045D0007D878E8760E0F80184850E946D256F8756
:1045E000788B898B61E0F80184810E946D2568EFEA
:1045F000CE010E948E2260E2CE010E948E22F894AB
:104600000E94A6266B017C0160E0CE010E948E22F2
:104610000E94A6267894688379838A839B83DC0131
:10462000CB018C199D09AE09BF09F801C088D1885A
:10463000E288F3888C159D05AE05BF0540F4C81AC5
:10464000D90AEA0AFB0ACC82DD82EE82FF82F801F7
:10465000048915892689378980179107A207B3072E
:1046600040F4081B190B2A0B3B0B088719872A8774
:104670003B87DF91CF911F910F91FF90EF90DF90DB
:10468000CF9008950F931F93CF93DF93EC0160EDCC
:1046900072E288810E940A278C0168EF0E948E22B4
:1046A0006C81611105C0DF91CF911F910F91089529
:1046B00048855985C801DF91CF911F910F910C94C6
:1046C000181ECF92DF92EF92FF920F931F93CF931A
:1046D000DF93CDB7DEB729970FB6F894DEBF0FBED4
:1046E000CDBF8C01F62E9E012F5F3F4F89E0F9016F
:1046F00011928A95E9F782EF898349E061E0F80138
:10470000848595850E94FC12F801A389B0E0549637
:10471000A00FB11F86E0FE01329601900D928A959E
:10472000E1F7F80183898A5F838B8B3208F044C0FC
:1047300089858F778F3160F0F801208931892F3F8B
:10474000FFEF3F0729F02F5F3F4FF801318B208BA0
:1047500082508F31B0F1F801828981FD0FC0299616
:104760000FB6F894DEBF0FBECDBFDF91CF911F9182
:104770000F91FF90EF90DF90CF900895C8010E94B5
:10478000E92DF80182898B7F828BF8940E94A626FE
:10479000F801C084D184E284F384DC01CB018C0D68
:1047A0009D1DAE1DBF1D84839583A683B783C8015D
:1047B0000E941F2E7894D3CF6F2DC8010E9418221B
:1047C000B7CF10926E0281E080934602C8CF5F920D
:1047D0006F927F928F929F92AF92BF92CF92DF9211
:1047E000EF92FF920F931F93CF93DF931F921F922D
:1047F000CDB7DEB76C01FC01E08069EF71E28E2D70
:104800000E940A278C01F60180859185A285B385D7
:10481000892B8A2B8B2B99F1C8010E94E92DF60177
:1048200084819581A681B781F80184839583A683CD
:10483000B783F60180859185A285B385F8018087CD
:104840009187A287B38781E0828B118A108A1786AD
:104850001686138AC8010E941F2E0F900F90DF91B9
:10486000CF911F910F91FF90EF90DF90CF90BF906D
:10487000AF909F908F907F906F905F900895C80148
:104880000E94E92DF801128A8DE289831A820E9422
:10489000A626C62EB72EA82E992E9E012F5F3F4F1B
:1048A00042E060E0F801848595850E94FC120E9438
:1048B000A626862E772E682E592E81E2F82E99EBA9
:1048C000D92E07C06E2DC8010E946123FA94FF20E3
:1048D00079F0D9821A829E012F5F3F4F42E061E05A
:1048E000F801848595850E94FC128A818F7351F7A7
:1048F000F8018389882321F06E2DC8010E941822B7
:10490000F80187858F9386858F9381898F9380891E
:104910008F935F926F927F928F929F92AF92BF928E
:10492000CF921F92EF9287EA9FE09F938F930E940E
:10493000E12B0FB6F894DEBF0FBECDBF8ECFB0997E
:104940000FC0809148029091490201961092160280
:1049500010921502909318028093170281E0089537
:1049600081E086BB80914802909149020196909324
:1049700049028093480220E030E8309316022093E9
:104980001502909318028093170281E00895CF9347
:10499000DF93FC0184819581A681B7814489558983
:1049A00066897789C58DD68D3881C42FC170278DD2
:1049B000232331E009F430E0C31761F04F5F5F4F0C
:1049C0006F4F7F4F448B558B668B778B808F918F8A
:1049D000A28FB38F4089518962897389272F481725
:1049E00059076A072B0B27FF18C0248D2160248FDD
:1049F0004485558566857785840F951FA61FB71F4B
:104A0000808B918BA28BB38B10926E0281E080938E
:104A1000470284819581A681B78140855185628551
:104A20007385840F951FA61FB71F84839583A68364
:104A3000B78381E0DF91CF9108950F931F93CF93B8
:104A4000DF938C016FE475E2FC0180810E940A27EC
:104A5000EC010E94E92DF80184819581A681B7813E
:104A60008C839D83AE83BF8340855185628573852A
:104A7000488759876A877B8744855585668577850A
:104A80004C875D876E877F87888B998BAA8BBB8BC2
:104A9000CE01DF91CF911F910F910C941F2E0F9398
:104AA0001F93CF93DF93EC0140E250E06FE475E297
:104AB00088810E94DB268C0168858C810E94D61B30
:104AC000F801658F768F878F87EC94E293838283DA
:104AD000DF91CF911F910F910895803678F5E82FDF
:104AE000E695E695E695F0E0EE0FFF1FE655F14FEF
:104AF000A591B491109711F1877021E030E0A901E0
:104B000002C0440F551F8A95E2F7CA013FB7F894D7
:104B100012962C91129761110FC040952423129682
:104B20002C93129711962C911197282B11962C9358
:104B300011973FBFBD010895242BF1CF8AE20E9457
:104B40006E301F920F920FB60F9211240BB60F9278
:104B5000EF92FF920F931F932F933F934F935F9387
:104B60006F937F938F939F93AF93BF93CF93DF9375
:104B7000EF93FF93C0911902D0911A02EA81FB8151
:104B8000309709F067C0E889F9892A8920838E85E2
:104B90009F85019709F4B6C09F878E878885998580
:104BA000AA85BB854C815D816E817F81480F591F2D
:104BB0006A1F7B1F4C835D836E837F8320832AA1C2
:104BC00023FF0EC00C851D85012E000C220B330B1C
:104BD000800F911FA21FB31F88879987AA87BB8761
:104BE000E881F9810481158126813781872F40175B
:104BF00051076207830B87FD66C07801F0931A02A4
:104C0000E0931902DF010190F081E02D048115810C
:104C100026813781872F401751076207830B87FF53
:104C2000F1CFF983E883CD93DC9380918400909158
:104C300085008E199F0997FD25C07894B29945C0CB
:104C4000F894C0911902D0911A02EA81FB81309741
:104C500009F499CFCE0119954C815D816E817F81D8
:104C60008111BECFE881F981E480F580F0931A02CA
:104C7000E093190280918400909185008E199F091C
:104C800097FFDBCF863A9F4F0CF04FC0F092890020
:104C9000E0928800FF91EF91DF91CF91BF91AF91AA
:104CA0009F918F917F916F915F914F913F912F9144
:104CB0001F910F91FF90EF900F900BBE0F900FBEC2
:104CC0000F901F9018957A01B0CFF89480918400CE
:104CD000909185009701281B390B2038314CF4F056
:104CE00020916E0227FF26C09C01205C304E30933D
:104CF0008B0020938A0024E026BB90938900809348
:104D0000880093CFCE010E94D916E889F9899A8943
:104D100090834C815D816E817F81A2CF20914A0278
:104D20002111DECF88E20E946E307894B299CDCF07
:104D3000F8947BCF9C012854344F30938B00209300
:104D40008A0024E026BB7C01F394A0CF2FB7F8940F
:104D50006091840070918500809148029091490291
:104D6000B09902C02FBF08952FBF7F3FE1F3019696
:104D7000089578940E949D2E2FEF260F6623C1F090
:104D8000FC018FEF9FEF31918327082E8295807F62
:104D90008025092E982F82958F7008268695982752
:104DA0008927880F880F880F8025215060F7089584
:104DB0008FEF9FEF0895CF93DF939091340289177F
:104DC00030F5C82FD0E0CC0FDD1FCC0FDD1FE091F8
:104DD0003502F0913602EC0FFD1F80819181892B05
:104DE000B1F480913C0290913D02892B81F4718352
:104DF0006083CA010E94BE2B209135023091360299
:104E0000C20FD31F9B838A83DF91CF9108958BE0DC
:104E10000E946E3090913402891788F4E091350237
:104E2000F091360294E0899FE00DF11D11248081FC
:104E300091818617970719F48281938108958CE0F8
:104E40000E946E30CF92DF92EF92FF92CF93DF936A
:104E5000C0913C02D0913D022097B9F121976E019B
:104E6000E12CF12CA0913B02B0E02097D9F020E09A
:104E700030E040E050E0BA018091390290913A026E
:104E8000FC01E20FF31F4F5F5F4F6F4F7F4F2A0F01
:104E90003B1F820F931F918380834C155D056E0528
:104EA0007F0550F38091390290913A02CA9FF00138
:104EB000CB9FF00DDA9FF00D1124E80FF91F11823E
:104EC00010829093430280934202DF91CF91FF9032
:104ED000EF90DF90CF900895FC011382128211822F
:104EE00010826F3F710509F07CF480913C02909133
:104EF0003D02892B49F480913B0290E08617970789
:104F000014F460933B0208950E94E80F2FB7F894C1
:104F10008091420290914302009749F0FC01408148
:104F2000518150934302409342022FBF08958FE076
:104F30000E946E30CF92DF92EF92FF921F93CF9339
:104F4000DF936A017B0162EC7EE0FB01949198178C
:104F500049F0675F7F4FFFE062357F07B1F782E37B
:104F60000E946E30FB013896949191FF1AC030EA8E
:104F7000C3163FE5D306E104F10408F483C0C0E89A
:104F8000CC16CEE7DC06C1E0EC06F10408F090C0D8
:104F9000D0E4CD16DFEBDD06E104F104C8F414E043
:104FA00022C0F8EBCF16F7E4DF06E104F10490F03D
:104FB000A0ECCA16AEE3DA06A1E0EA06F10408F4B2
:104FC00075C0C114BBEFDB06B4E0EB06F10438F3A7
:104FD00015E009C037EFC31638E0D306E104F10449
:104FE00008F05FC011E0FB013396A591B491FB017D
:104FF0003596C591D491FB0137963491E82FE6950B
:10500000E695E695F0E0EE0FFF1FE655F14F45916E
:1050100054918770E1E0F0E07F0101C0EE0C8A95C9
:10502000EAF7FB013196C590D490892F8170A038A2
:10503000B10509F44BC0EFB7F8949881977011F05F
:10504000191341C0188381112EC09FB7F894622FA5
:1050500070E0E601798368839FBF9C913160392BB2
:105060003C93DA0111969C911197E92A1196EC92E2
:10507000EFBFB601DF91CF911F91FF90EF90DF90CE
:10508000CF900895A8EDCA16A7E2DA06E104F1046C
:1050900068F4B7EFCB16B8E0DB06E104F10408F4DE
:1050A000A1CF12E0A0CFE6012883D7CF13E09BCF9A
:1050B000C114EBEFDE06E4E0EE06F10410F416E0B6
:1050C00092CF17E090CF80E30E946E3081E30E9480
:1050D0006E304F925F926F927F92BF92CF92DF922B
:1050E000EF92FF920F931F93CF93DF93FC01B08059
:1050F0006EE379E28B2D0E940A27EC014D805E80E1
:105100006F807884C984DA84EB84FC840E94A626AC
:10511000DC01CB0184199509A609B7098C159D05F9
:10512000AE05BF0568F40E94A626DC01CB018419F8
:105130009509A609B7098C159D05AE05BF0598F31D
:10514000CD84DE84688179818A81A0918400B091C8
:1051500085000B811C819E01215F3F4F7901C20EAA
:10516000D31ECE14DF0409F457C0F70191917F01DB
:1051700028E013C0F8944091840050918500FB0111
:10518000808380837894FA01EA1BFB0BE017F10718
:10519000D8F4990FDA01215021F397FFEBCFF8945F
:1051A0004091840050918500FB0180837894FA013E
:1051B000EA1BFB0BE017F10738F4990FF894FB0199
:1051C00080837894DA01E7CF40E00E940F1C0E94B0
:1051D000A6266D837E838F83988780E01F928F93AE
:1051E0001F92BF928EE89FE09F938F930E94E12BC6
:1051F0000F900F900F900F900F900F90DF91CF9125
:105200001F910F91FF90EF90DF90CF90BF907F9014
:105210006F905F904F9008950E94A6266D837E83C5
:105220008F83988781E0DACF0F931F93CF93DF931B
:10523000EC016EE379E288810E940A270C811D81CE
:105240002E813F8148856C857D8517FD14C050E017
:10525000DA01A00FB11FEC01ED85FE85EA17FB070F
:1052600050F0015F1F4F800F911FDF91CF911F9171
:105270000F910C94C83186E20E946E306F927F923B
:105280008F92CF92DF92EF92FF92CF93DF93EC0158
:1052900060E08C810E946D253B01882EC884D984F2
:1052A000EA84FB84D7FC24C0A601415F5F4F6EE314
:1052B00079E288810E94DB26FC0160827182828211
:1052C000D686C5868C859D859483838388899989B4
:1052D000AA89BB8981879287A387B487DF91CF9101
:1052E000FF90EF90DF90CF908F907F906F90089518
:1052F00087E20E946E30CF93DF93EC0161E87AE29F
:1053000088810E940A27488559856C81FC0180812B
:10531000DF91CF910C948B1B2F923F924F925F9213
:105320006F927F928F929F92AF92BF92CF92DF92B5
:10533000EF92FF920F931F93CF93DF9300D01F92B2
:105340001F92CDB7DEB77C012DB73EB73D832C83CE
:1053500061E87AE2DC018C910E940A279B838A83B0
:10536000F701F481F983D70118966D907C90199715
:105370001C968D919D910D90BC91A02D80FD6BC0D0
:105380001C012D015694479437942794F701E08827
:10539000F188C22CD12CF9810F2F10E0C8018C0D9F
:1053A0009D1D2DB73EB7281B390B0FB6F8943EBF95
:1053B0000FBE2DBF8DB79EB701965C01A801B3014A
:1053C0000E94C8314501800E911E8401222DA30147
:1053D0006981AA81BB818C910E94011BC114D104F7
:1053E00099F0CE0CDF1CF4019601D7018D917D015F
:1053F0008095908189238083D9019D919D01892B7E
:105400008193CE14DF0489F76981620DA501EA81D9
:10541000FB8180810E948B1BEC81FD810FB6F8948B
:10542000FEBF0FBEEDBF0F900F900F900F900F902B
:10543000DF91CF911F910F91FF90EF90DF90CF9070
:10544000BF90AF909F908F907F906F905F904F90A4
:105450003F902F9008958FE10E946E30AF92BF92DF
:10546000CF92DF92EF92FF920F931F93CF93DF9330
:10547000CDB7DEB77C01ADB6BEB6FC01C08061E839
:105480007AE28C2D0E940A27F701648140855185BC
:10549000D4842DB73EB72D1931090FB6F8943EBF0D
:1054A0000FBE2DBFEDB7FEB731967F018F012D2DB9
:1054B000FC0180810E94011BFF92EF921F92DF92FC
:1054C0001F92CF928CEA9FE09F938F930E94E12BD3
:1054D0002DB73EB7285F3F4F0FB6F8943EBF0FBEC3
:1054E0002DBF0FB6F894BEBE0FBEADBEDF91CF91FB
:1054F0001F910F91FF90EF90DF90CF90BF90AF90F2
:105500000895EF92FF921F93CF93DF93EC018C8568
:10551000182F1F7741E050E061E87AE288810E940D
:10552000DB267C018C819D81AE81BF81892B8A2BFA
:105530008B2BF1F48091BC0082FD10C061E089E109
:105540000E946D2561E088E10E946D251092B900EE
:1055500088E48093B80084E08093BC00812F880F9A
:10556000F7018083DF91CF911F91FF90EF90089515
:105570008FE20E946E30CF93DF93EC016AE770E117
:1055800088810E940A27FC018C819D81AE81BF81A8
:10559000892B8A2B8B2B51F420E0F89492A19D7FCC
:1055A000922B92A37894DF91CF91089522E0F5CFCA
:1055B0000F931F93CF93DF938C01EC016E97CE0175
:1055C0000E94E92D1C821D821E821F828E899F8966
:1055D000A88DB98D2E853F85821B930BA109B1093A
:1055E000B7FD3FC0B095A095909581959F4FAF4F67
:1055F000BF4F8E8B9F8BA88FB98F1F861E868AA167
:10560000847080628AA36B897C898D8940E00E94C6
:105610000F1C4AA14470688979898A890E940F1CED
:10562000D8011497ED91FC9111973097A9F0409112
:1056300042029091430201C0F901208131814083EF
:105640009183F0934302E09342024E2F9F2F211546
:10565000310591F71D921C92DF91CF911F910F910F
:105660000895B095A095909581959F4FAF4FBF4FEE
:10567000B9CF0F931F93CF93DF938C016AE770E14B
:10568000FC0180810E940A27EC0168ED75E1F801B8
:1056900084810E940A27BE01625E7F4F4FB7F89453
:1056A00028A139A1232B89F428ED3AE239A328A3B4
:1056B000FC01248935893F8F2E8F758B648B4FBFFA
:1056C000DF91CF911F910F91089589E10E946E3073
:1056D000CF93DF93EC016AE770E188810E940A278B
:1056E000FC014C815D816E817F81F8948685978570
:1056F000892B61F4448355836683778392A19F7CD1
:10570000906192A37894DF91CF91089586E10E94F1
:105710006E30CF93FC01C0816AE770E18C2F0E944C
:105720000A27FC01F89486899789A08DB18D26857A
:105730003785821B930BA109B109B7FF07C0B0954C
:10574000A095909581959F4FAF4FBF4F7894B054DF
:10575000BF93AF939F938F931F92CF938AEC9FE059
:105760009F938F930E94E12B8DB79EB708960FB63B
:10577000F8949EBF0FBE8DBFCF910895CF93DF9356
:10578000C0913702D0913802AE01480F591F2DB792
:105790003EB721503F4F22273A952417350770F026
:1057A0005093380240933702AC0160E070E0CE01C4
:1057B0000E94E331CE01DF91CF91089581E10E94F3
:1057C0006E302F923F925F926F927F928F929F9254
:1057D000AF92BF92CF92DF92EF92FF920F931F93FF
:1057E000CF93DF93CDB7DEB728970FB6F894DEBF1F
:1057F0000FBECDBF80914B028823C1F028960FB613
:10580000F894DEBF0FBECDBFDF91CF911F910F91F6
:10581000FF90EF90DF90CF90BF90AF909F908F90D0
:105820007F906F905F903F902F90089581E08093DC
:105830004B028E01015E1F4F209191035090900307
:105840002515C0F4452D50E0CD8CDE8C3FEFC31AFA
:10585000D30AF60184913A01680E711CC3018136A6
:10586000910554F1821B91098136910560F01092E7
:105870004B02C4CF109290031092910340E050E08D
:10588000512C20E0E1CF1092900360919103561AC1
:10589000E52CF12C70E0605D7C4FA70180E393E084
:1058A0000E94D13110929103509290038091C100D7
:1058B00080628093C100A7019A01205D3C4F79016D
:1058C000F601A491A63008F42BC1AA2EB12CF3E066
:1058D000AF1AB108A20EB31EED8DFE8D32969491D3
:1058E000ED8DFE8D3396C590D4902D5F3F4F3E8356
:1058F0002D83ED8DFE8D8491D70112968C93360108
:10590000690E711C78866F826F807884C614D70404
:1059100009F435C18D809E80A814B90448F0F601C1
:105920008491853009F4BFC008F441C0883018F074
:1059300086E00E946E30F80120813181F5016D8092
:105940007E80E619F709AF01FF0F660B770B4983DD
:105950005A836B837C83A901330F660B770B6980B5
:105960007A808B809C80641675068606970608F4FC
:10597000C8C06D807E802FEF621A720AAD81BE8131
:105980004C931801B4E02B0E311CF80122813381B5
:105990008A01B901863009F4B7C0C3010E94C83139
:1059A0004301800E911E9E828D828101A6C08230AD
:1059B00008F4AEC0833009F4D8C0F80140815181A9
:1059C0003A01812C912C0E5F1F4FD401C3018096A8
:1059D000A11DB11D80389105A105B10508F4C2C013
:1059E000A4019301305F4F4F5F4F211530444105B3
:1059F000510508F43FC0D401C30118960097A04296
:105A0000B10540F1A40193015C5F21153105410509
:105A1000504180F0D401C3015CE1B695A7959795FC
:105A200087955A95D1F78068AD81BE818C93119688
:105A3000BE83AD83D401C30145E1B695A795979583
:105A400087954A95D1F78068AD81BE818C93119678
:105A5000BE83AD83D401C3013EE0B695A79597956B
:105A600087953A95D1F78068AD81BE818C93119668
:105A7000BE83AD83ED81FE813196D401C30127E061
:105A8000B695A795979587952A95D1F78068AD81AA
:105A9000BE818C939F012F5F3F4F3E832D83462D08
:105AA0004F7740832AC098012E5F3F4FF801A081B5
:105AB000B1818D819E8101966C91662399F08A1542
:105AC0009B0580F4FD01319604C0A816B90609F4BF
:105AD00047C00196AC0141505109DA016C936191C4
